:020000040800F2
:10000000F006002089010008D1170008C917000870
:10001000CD170008C9030008E5170008000000001C
:10002000000000000000000000000000D9170008D8
:10003000D903000800000000D5170008DD170008EC
:10004000A3010008A3010008A3010008A301000800
:10005000A3010008A3010008A3010008A3010008F0
:10006000A3010008A3010008A3010008CD030008B4
:10007000A3010008A3010008A3010008A3010008D0
:10008000A3010008A301000891020008A3010008D1
:10009000A3010008A3010008A3010008A3010008B0
:1000A000A3010008A3010008A3010008A3010008A0
:1000B000A3010008A3010008A3010008A301000890
:1000C000A3010008A3010008A3010008A301000880
:1000D000A3010008A3010008A3010008A301000870
:1000E000A3010008A3010008A301000800F002F822
:1000F00000F03AF80AA090E8000C82448344AAF188
:100100000107DA4501D100F02FF8AFF2090EBAE885
:100110000F0013F0010F18BFFB1A43F0010318473B
:100120003818000058180000103A24BF78C878C169
:10013000FAD8520724BF30C830C144BF04680C60ED
:10014000704700000023002400250026103A28BF35
:1001500078C1FBD8520728BF30C148BF0B60704739
:100160001FB51FBD10B510BD00F058F81146FFF7C0
:10017000F7FF01F039FB00F076F803B4FFF7F2FF68
:1001800003BC00F07DF8000009488047094800479B
:10019000FEE7FEE7FEE7FEE7FEE7FEE7FEE7FEE737
:1001A000FEE7FEE704480549054A064B7047000094
:1001B000E1170008ED000008F0000020F006002024
:1001C000F0020020F00200204FF0000200B51346BC
:1001D00094469646203922BFA0E80C50A0E80C5067
:1001E000B1F12001BFF4F7AF090728BFA0E80C5018
:1001F00048BF0CC05DF804EB890028BF40F8042B11
:1002000008BF704748BF20F8022B11F0804F18BF7D
:1002100000F8012B7047704770477047754600F033
:100220002BF8AE4605006946534620F00700854688
:1002300018B020B5FFF7B6FFBDE820404FF000062C
:100240004FF000074FF000084FF0000BAC46ACE851
:10025000C009ACE8C009ACE8C009ACE8C00921F0AD
:1002600007018D46704710B50446AFF30080204665
:10027000BDE81040FFF781BF004870471000002024
:1002800001491820ABBEFEE72600020070470000BF
:1002900040F27800C2F2000000F074B90146406AF2
:1002A000826A12F0500F03D0006A026B08461047B2
:1002B0000168826A42F400728262896801F46021F6
:1002C000B1F5602F01D1017B11B100F055B900BF2C
:1002D000816A21F480718162816AC90448BF00F09B
:1002E0004BB9816A41F00101816200F045B900001B
:1002F000406A816A41F040018162C16A41F00401B3
:10030000C16200F03DB90000406A00F037B900005A
:10031000B0B582B004460020019021688A68D207F7
:100320004FD1886840F00100886040F20800C2F2B6
:10033000000000684DF68361C4F21B31A0FB01018F
:10034000880C01900198A0B10198013801900198A2
:1003500078B1019801380190019850B101980138A5
:100360000190019828B10198013801900198002866
:10037000EAD100F015FE21688968C9071CD105463D
:1003800003E000BF8068C0071AD100F009FE411BDE
:1003900020680329F6D38168C907F3D1A06A40F029
:1003A0001000A062E06A40F00100E062002084F8E2
:1003B0002400012002B0B0BD002002B0B0BD00BFDB
:1003C000002002B0B0BD0000FEE7000040F2A8002F
:1003D000C2F2000000F060BB70470000EFF3108035
:1003E00072B600BFFEE700007047000010B581B094
:1003F0000022009290F82420012A03D1022108460D
:1004000001B010BD4B680122062B80F8242017D8BC
:10041000D0F800C003EB83035A1F1F23DCF834E03D
:1004200003FA02F40B682EEA040403FA02F22243F0
:10043000CCF83420092B03EB430219D936E000BF76
:10044000D0F800C00C2B03EB83021DD8233A1F23E6
:10045000DCF830E003FA02F40B682EEA040403FA35
:1004600002F22243CCF83020092B03EB43021DD8C3
:10047000DCF81030072489689440A3439140194365
:10048000CCF81010002130E0413A1F23DCF82CE0BA
:1004900003FA02F40B682EEA040403FA02F2224380
:1004A000CCF82C20092B03EB4302E1D9DCF80CE05B
:1004B0001E3A0724896894402EEA0404914023F0F0
:1004C00001022143102ACCF80C100DD142F2084150
:1004D000C4F20101A1F1080294450DD0816A41F0F6
:1004E00020018162012100E00021002280F8242007
:1004F000084601B010BD00BF0A68120230D40A6875
:10050000102B42F400020A602CD140F20801C2F222
:10051000000109684DF68362C4F21B32A1FB02128E
:10052000910C01EB8101490000910099E1B1009922
:10053000013900910099C9B10099013900910099E0
:10054000B1B1009901390091009999B1009901392F
:100550000091009900294FF00001E8D1C5E700BFE4
:100560000021C2E70021C0E70021BEE70021BCE76F
:100570000021BAE70021B8E770470000704700008B
:100580007047000070B50446006805684668B1060B
:1005900027D515F0020124D0A16AC90603D4A16AA7
:1005A00041F40071A162816801F46021B1F5602F0E
:1005B00010D1217B71B9416821F020014160A06A0E
:1005C00020F48070A062A06AC00403D4A06A40F046
:1005D0000100A0622046FFF7CFFF20686FF01201F4
:1005E0000160310633D515F0040130D0A16AC90687
:1005F00003D4A16A41F40051A162816801F4E04191
:10060000B1F5E04F10D1416821F080014160A06A4E
:1006100020F48050A062A06AC00511D4A06A40F006
:100620000100A0620CE000BF4168490508D4816860
:1006300001F46021B1F5602F02D1217B0029E2D0C5
:100640002046FFF7D1FE20686FF00C0101607006B4
:100650000ED515F0010008BF70BDA06A40F48030CF
:10066000A062204600F0B4F820686FF0010101603C
:1006700070BD0000B0B5002800F0A8800446806A74
:1006800020B121688868C0070BD114E00020E06227
:1006900084F82400204600F09DF821688868C0078F
:1006A00009D0886820F00100886000F079FC21689A
:1006B0008A68D20726D1A06AC0063AD4A06A41F25D
:1006C000021290430230A062E069D4E9013240EAAC
:1006D000030C531EB3FA83F35D091346B2F5807F12
:1006E00018BF2B02207D257B01284CEA450030D124
:1006F00035B3A56A45F02005A562E56A45F0010518
:10070000E56226E0054602E08868C007D3D000F025
:1007100047FC401B21680328F6D38868C007F3D044
:10072000A06A40F01000A062E06A40F00100E062C0
:10073000A06AA06A40F01000A0620120B0BD00BF16
:10074000D4F818C04EF60005CFF6FF7505EB4C3512
:100750002B434D68B2F5807F25F4694543EA0503D4
:100760004B608B684FF2FD75CFF6E17503EA050328
:1007700043EA00038B6001D0012A07D122690023DC
:10078000CFF6F07303EB025201E000BF0022CB6A08
:1007900023F470031A43CA62896840F6FE62CFF6FA
:1007A0001F721140814207D10020E062A16A01223C
:1007B00062F30101A162B0BDA06A40F0100020F018
:1007C0000200A062E06A40F00100E0620120B0BDDA
:1007D0007047000070B586B0044640F60000C4F2D1
:1007E0000100216800F5E05200269142059604962A
:1007F00002D006B070BD00BF41F21801C4F2020180
:100800000A6842F400720A600A6802F400720192F7
:10081000019A0A6842F004020A60096801F00401C2
:1008200001910199062102910321039102A900F08F
:10083000A9FA40F2A8050820C2F20005C4F202009D
:100840004FF48072C5E9000605F1100080214FF4D5
:1008500080634CC02846C5E90261EE6100F0ECF906
:10086000002818BFFFF7BAFD1220002100222562E0
:100870006C6200F017FC122000F000FC06B070BDA6
:1008800070B515460446006842F60002C4F2010243
:1008900090420E4605D042F20041C4F20101884266
:1008A00009D142F20440C4F20100006810F4702F34
:1008B0001CBF012070BD94F82400012804BF022051
:1008C00070BD012084F824002046FFF721FD18B1F7
:1008D000002184F8241070BD42F204402168A26A0D
:1008E000C4F2010040F601739A4300F57F7302F5EC
:1008F00080729942A26243D0A06A20F48010A06264
:100900004868400504D5A06A012262F30D30A06258
:10091000A26A0020D2044FF0000244BFE26A22F033
:100920000602E26284F82400206A40F29D22C0F6AA
:10093000000240F2093340F2F12C00F1280EC0F61B
:100940000003C0F6000C8EE80C106FF002020A6083
:100950008A682B4642F480728A604C31324600F03D
:10096000AFF92068816801F460228168B2F5602FD8
:100970000CBF41F4A00141F480118160002070BDE2
:10098000026812F4702FB7D0A26A42F48012A262F9
:1009900000684005BCD5B6E7B0B5044690F8240021
:1009A000012804BF0220B0BD0120216884F8240082
:1009B0008868C00709D0886820F00100886000F0CE
:1009C000EFFA21688A68D2071AD1886820F480700B
:1009D0008860206A90F8211002290BD100F038F8C5
:1009E000A16A48B341F04001A162002184F82410BB
:1009F000B0BD00BF0020002184F82410B0BD00BFAE
:100A0000054602E08868C007DFD000F0C9FA401B45
:100A100021680328F6D38868C007F3D0A06A40F0A5
:100A20001000A062E06A40F00100E06201200021B5
:100A300084F82410B0BD00BF41F2011021EA00008B
:100A40000130A0620020002184F82410B0BD000015
:100A5000014690F82100022816D10868D1E90FC399
:100A6000026822F00E020260026822F001020260B7
:100A7000012000FA03F2CCF8042081F821000020C4
:100A8000002281F820207047042088630120002282
:100A900081F820207047000010B5D0E90FCE016822
:100AA000DCF800300A6823FA0EF35C072AD512F04E
:100AB000040427D00A68920603D40A6822F00402CC
:100AC0000A602F22C4F20202914240F20402C4F2F0
:100AD00002025BDD3023C4F20203994272D0442348
:100AE000C4F20203994273D05823C4F2020399421C
:100AF00040F07A804FF480231360C16A002940F0EF
:100B000098806FE09C0727D512F0020424D00A6871
:100B1000920606D40A6822F00A020A60012280F8CE
:100B200021202F22C4F20202914240F20402C4F2B8
:100B300002023BDD3023C4F20203994260D0442319
:100B4000C4F2020399425FD05823C4F202039942CF
:100B500060D14FF4003365E01B0743D512F0080263
:100B600008BF10BD0A6822F00E020A60012101FAD6
:100B70000EF2CCF80420816380F82110016B002272
:100B8000002980F8202054D12CE000BF0823C4F2B3
:100B90000203994222D01C23C4F20203994223D1BA
:100BA00040231360C16A002943D11BE00823C4F22B
:100BB000020399422CD01C23C4F20203994229D18A
:100BC00020232FE04FF480631360C16A89BB09E0E2
:100BD0004FF480431360C16A59BB03E004231360E0
:100BE000C16A31BB10BD00BF02F168044FF08063E1
:100BF000A14208BF4FF480031360C16AC9B9F1E78D
:100C00004FF400730EE000BF4FF400530AE000BF42
:100C1000022307E002F168044FF00073A14208BF0D
:100C20004FF400131360816A0022002980F820200D
:100C3000D8D0BDE810400847014600284FF0010019
:100C400008BF70472DE9F043D1F800C04FF6F873A4
:100C5000CBF6FD734CF6CD426344CCF6CC42A3FBFD
:100C600002236FF0030707EA93030027C4F2020789
:100C700001F10C09C1E90F730223D1E9012E99E8B2
:100C80007002D1F81C8081F82130DCF8003043F686
:100C9000F077BB431A4342EA0E0222432A4332430F
:100CA00042EA090242EA0802CCF8002000228A63E4
:100CB00081F8210081F820200020BDE8F043704732
:100CC000F0B590F820C0BCF1010F32D04FF0010E0A
:100CD00080F820E090F821C0BCF1010F26D14FF040
:100CE000020C80F821C04FF0000CC0F838C0D0E9E9
:100CF00000C4C56AC66BDCF80070102C27F0010731
:100D0000CCF80070006C0EFA00F070600846CCF869
:100D1000043004BF10460A46CCF80800CCF80C207A
:100D2000DCF8000045B140F00E000DE0002180F835
:100D300020100220F0BD00BF20F00400CCF800001D
:100D4000DCF8000040F00A00CCF80000DCF80000FD
:100D500040F00100CCF800000020F0BDB0B5044622
:100D600000F01EF9054640F20000C2F200000078D3
:100D7000611C18BF044400BF00F012F9401BA042E0
:100D8000FAD3B0BD2DE9F04F82B00E68002E00F00E
:100D9000038141F20042C4F20102042340F2004EFA
:100DA000904208BF03234FF6FF7CC4F2010E00936C
:100DB00000240123C1F2100C4FF0000A4FF000098B
:100DC00049E000BF012704F00C030F229A402BEAF0
:100DD000020207FA03F34FEA9A051A4346F8252060
:100DE000D1F804B040F20C455FEACB22DEF80820CF
:100DF00054BF22EA080242EA0802C4F20105CEF812
:100E000008202A685FEA8B2354BF22EA080242EADC
:100E100008022A605FEA8B33DEF8042054BF22EA1E
:100E2000080242EA08025FEACB33CEF80420DEF87B
:100E300000204FF0010354BF22EA080242EA0802F0
:100E4000CEF800200E680AF1010A36FA0AF204F11F
:100E5000040400F0A18003FA0AF816EA080FF1D0A2
:100E60004E68664512DC122E56D8DFE806F0350BC8
:100E70004549555555555555555555555555554D46
:100E8000510000BFD1F80C9046E000BF4FF6FF7252
:100E9000C1F2210296420FDC0022C1F211029642F9
:100EA0001AD00022C1F21202964215D00022C1F2DD
:100EB0002102964210D02FE00022C1F22202964277
:100EC0000AD00022C1F23102964205D00022C1F2BE
:100ED0003202964220D100BF8A684AB1012A14BF6B
:100EE000C0F81480C0F810804FF0080914E000BF6B
:100EF0004FF0040910E000BFCA6802F108090BE0D6
:100F00004FF0000908E000BFCA6802F1040903E0DD
:100F1000CA6802F10C0900BF22460646BAF1080F62
:100F200024BF203A043637680F25954027EA050587
:100F300009FA02F22A433260CA79D2067FF582AFFB
:100F400041F21803C4F202031A68AEF57E7642F04D
:100F500001021A601A6802F001020192019A2AF055
:100F6000030256F802B040F60002C4F201029042B9
:100F700010D040F60042C4F2010290423FF422AF8A
:100F800041F20002C4F20102009F904208BF022712
:100F900019E700BF002716E702B0BDE8F08F000098
:100FA00040F2EC00C2F200000068704740F200001E
:100FB00040F2EC01C2F20000C2F2000100780A68BF
:100FC000104408607047000080B542F20000C4F28F
:100FD0000200016841F010010160032000F08EF86A
:100FE0000F2000F005F800F027F8002080BD000079
:100FF00070B540F20006C2F2000640F208013278F5
:10100000C2F200014FF47A730968B3FBF2F20446AE
:10101000B1FBF2F1084600F0C1FB0F2C4FF00105C7
:1010200008D838B94FF0FF3021460022002500F0E3
:1010300039F87460284670BD82B041F21800C4F2DD
:1010400002000168042241F001010160016801F021
:10105000010101910199416841F08051416040686E
:1010600000F08050009000980420C4F20100016854
:1010700062F31A61016002B070470000002848BFA7
:101080007047C1B200F01F00012202FA00F04EF2D8
:101090000012CEF2000242EAD10121F00301086001
:1010A0007047000010B54EF60C5CCEF2000CDCF878
:1010B0000030C3F3022E8EF00704042C28BF042452
:1010C000BEF103034FF0FF3E0EFA04F438BF0023D5
:1010D000A14399400EFA03F39A43114300F00F0223
:1010E00000F160430901043A03F5644362440028B7
:1010F00048BF02F10C03197010BD00004EF60C51F0
:10110000CEF200010A684FF6FF031A4060F30A228C
:1011100042F0806040F0FD70086070472DE9F041BA
:1011200082B00446007841F21C06C007C4F20206F1
:101130004AD0306810F0805808D1306840F08050B4
:101140003060306800F080500190019847F200074D
:10115000C4F200073868C00512D4386840F48070C3
:101160003860FFF71DFF05463868C00508D4FFF753
:1011700017FF401B6428F7D9032002B0BDE8F081B7
:10118000706810F4407012D0616801F440718842B8
:101190000DD0706840F24042C4F24222012320F494
:1011A000407113600023C007136071602AD170681A
:1011B000616820F440700843B8F1000F706003D1FB
:1011C000306820F0805030602068810707D556F8DD
:1011D000181CA26821F44041114346F8181CC006AF
:1011E00004D4002002B0BDE8F08100BF56F8180C0E
:1011F000E16820F48000084346F8180C002002B093
:10120000BDE8F081FFF7CCFE054641F2883700BF0C
:1012100070688007CBD4FFF7C3FE401BB8424FF085
:101220000300F5D9EBE700002DE9F04381B0002879
:1012300000F0858042F20008C4F202080446D8F8A3
:1012400000000D4600F0070088420CD2D8F80000DC
:1012500020F007002843C8F80000D8F8000000F08C
:101260000700A8426BD1206841F204098107C4F24B
:10127000020917D5410705D5D9F8001041F4E061FE
:10128000C9F80010010705D5D9F8001041F46051E4
:10129000C9F80010D9F80010A26821F0F00111433C
:1012A000C9F80010C00741D1D8F8000000F00700CD
:1012B000A8420CD9D8F8000020F007002843C8F84D
:1012C0000000D8F8000000F00700A84237D12068DD
:1012D000410707D5D9F80010E26821F4E061114315
:1012E000C9F80010000708D5D9F80000216920F4DA
:1012F000605040EAC100C9F80000D9F8002002F0AF
:101300000C00082841F20020C0F27A0050D141F6CA
:101310004613C2F38341C0F60003595CD2033BD4A9
:1013200040F60010C0F23D00484341E060680228EA
:101330000AD001282AD159F8041C890308D40120B5
:1013400001B0BDE8F08300BF59F8041C8901F6D54F
:10135000D9F8001021F003010843C9F80000FFF795
:101360001FFE064641F28837D9F80000616800F098
:101370000C00B0EB810F97D0FFF712FE801BB84234
:10138000F2D9032001B0BDE8F08300BF59F8041C76
:101390008907D4D5DCE700BFD9F8002041F6441313
:1013A000C2F34042C0F600039A5C4843B0FBF2F03F
:1013B000D9F8001041F63412C1F30311C0F600024F
:1013C000515C40F2080220FA01F140F20400C2F23E
:1013D00000000068C2F200021160FFF709FE002061
:1013E00001B0BDE8F08300002DE9F04182B0002893
:1013F00068D00446007841F20006C007C4F2020635
:1014000025D0706800F00C0004281BD0706800F034
:101410000C00082802D17068C00313D4606800284B
:1014200000F06881B0F5A02F00F07C81B0F5803F1E
:1014300000F07C81306820F480303060306820F427
:10144000802076E13068800301D56068D0B32078D1
:10145000800718D5706810F00C0F07D0706800F086
:101460000C0008286ED17068C0036BD43068800708
:1014700002D52069012825D13068616920F0F80083
:1014800040EAC1003060207800071FD42078400770
:1014900032D4E56995B1706800F00C00082840F07E
:1014A0008F80012D0ED07068216A00F480328A424C
:1014B00008D1616A00F47010884203D1002002B0A4
:1014C000BDE8F081012002B0BDE8F081A0690028EC
:1014D00062D00020C4F242200121C0F88014FFF73E
:1014E0005FFD0546706A800700F18C80FFF758FDAC
:1014F000401B0228F6D92AE1F06910F0805808D183
:10150000F06940F08050F061F06900F08050009088
:10151000009847F20007C4F200073868C00529D4D4
:10152000386840F480703860FFF73AFD054600BF28
:101530003868C0051ED4FFF733FD401B6428F7D977
:1015400005E100BF2069002840F20000C4F24220FB
:1015500000F0828001210160FFF722FD054600BFF7
:10156000306880073FF588AFFFF71AFD401B02285F
:10157000F6D9ECE0E068002800F08080052800F053
:101580009780012800F09880306A20F001003062D6
:10159000306A20F0040092E00020C4F242200021D2
:1015A000C0F88014FFF7FCFC054600BF706A800796
:1015B0007FF56CAFFFF7F4FC401B0228F6D9C6E0BC
:1015C0000027C4F2422700203866FFF7E9FC022D0D
:1015D00005460BD13068800140F1BE80FFF7E0FC8A
:1015E000401B02284FF00300F4D968E730688001FF
:1015F0007FF564AFFFF7D4FC401B02284FF00300D7
:10160000F4D95CE740F20800C2F20000006844F63A
:10161000D351C1F26201A0FB0101480A019000BF51
:1016200000BF0198411E002801913FF42FAF00BF79
:101630000198411E002801913FF428AF00BF019896
:10164000411E002801913FF421AF00BF0198411EC7
:1016500000280191E4D119E700210160FFF7A0FC07
:10166000054600BF306880077FF50DAFFFF798FC97
:10167000401B02284FF00300F4D920E7306A20F025
:1016800001003062306A20F004003062FFF788FC0D
:10169000054641F2883700BF306A800720D5FFF742
:1016A0007FFC401BB8424FF00300F5D907E700BFAD
:1016B000306A40F004003062306A40F0010030626D
:1016C000FFF76EFC054641F2883700BF306A80079D
:1016D00006D4FFF765FC401BB842F7D937E000BFDE
:1016E000B8F1000F7FF4D5AEF06920F08050F061C2
:1016F000CFE600BF306820F480303060306820F4DE
:1017000080203060FFF74CFC054600BF3068800346
:101710007FF59DAEFFF744FC401B64284FF00300AB
:10172000F4D9CCE6306840F480203060306840F472
:1017300080303060FFF734FC054600BF306880031E
:101740003FF585AEFFF72CFC401B6428F6D903203B
:1017500002B0BDE8F08100BF206AB0F5803F05D13E
:101760007168A26821F40031114371607168626A86
:1017700021F4741111430843706001203866FFF7AB
:101780000FFC0446306880013FF598AEFFF708FC77
:10179000001B02284FF00300F4D990E6411E002000
:1017A000B0EB116F1CBF012070474EF21002CEF259
:1017B000000251604EF62351CEF20001F0230B706F
:1017C0000721906011607047FEE70000FEE700000F
:1017D000FEE700007047000070470000FFF7E6BB1F
:1017E00070470000FEE7000094B0FFF7EDFB0AAC85
:1017F000201D2421FEF7E8FC02200A9001200E9013
:10180000102000250F9020460495CDE90255119532
:10181000FFF7EAFD20B1EFF3108072B6FEE700BFDC
:101820000F20CDE9050505A80021CDE9075509954B
:10183000FFF7FAFC20B1EFF3108072B6FEE700BFAD
:101840000224002501A801940395FFF767FC28B145
:10185000EFF3108072B600BFFEE700BF41F2140044
:10186000C4F202004168002241F004014160416875
:1018700001F004010A910A99016841F00101016037
:101880000068002100F001000A900A980B20FFF781
:1018900009FC0B20FFF7F2FB40F27006C2F20006D3
:1018A00042F20041C4F20101304640F8081F4FF4F3
:1018B00080714FF4602205730575C261C0E9015162
:1018C0000461FEF7D7FE28B1EFF3108072B600BFB7
:1018D000FEE700BF0120CDE90A00002006F1080460
:1018E0000C900AA92046FEF781FD28B1EFF3108085
:1018F00072B600BFFEE700BF0220CDE90A000AA9C8
:101900002046FEF773FD28B1EFF3108072B600BFDA
:10191000FEE700BF351D00BF204629460222FEF724
:10192000AFFF0A20FFF71AFA2046FFF735F8706874
:101930003060F1E700000000000000000102030435
:1019400006070809010202030405060708090A0B35
:101950000C0D0E0F10100000781900080000002078
:10196000100000002801000888190008100000205D
:10197000E006000044010008010000001000000023
:081980000024F4000000000047
:04000005080000ED02
:00000001FF
