:020000040800F2
:10000000D00400200101000895120008CD1100085D
:100010009112000891010008A912000800000000D8
:100020000000000000000000000000009D12000819
:10003000A10100080000000099120008A1120008A8
:100040001B0100081B0100081B0100081B01000820
:100050001B0100081B0100081B0100081B01000810
:100060001B0100081B0100081B0100089501000886
:100070001B0100081B0100081B0100081B010008F0
:100080001B0100081B0100081B0100081B010008E0
:100090001B0100081B0100081B0100081B010008D0
:1000A0001B0100081B0100081B0100081B010008C0
:1000B0001B0100081B0100081B0100081B010008B0
:1000C0001B0100081B0100081B0100081B010008A0
:1000D0001B0100081B0100081B0100081B01000890
:1000E0001B0100081B0100081B010008DFF80CD0F1
:1000F00000F03CF800480047AD120008D004002092
:100100000648804706480047FEE7FEE7FEE7FEE7B1
:10011000FEE7FEE7FEE7FEE7FEE7FEE7A5120008C2
:10012000ED00000840EA01039B0703D009E008C97D
:10013000121F08C0042AFAD203E011F8013B00F8AC
:10014000013B521EF9D27047D2B201E000F8012BF8
:10015000491EFBD270470022F6E710B513460A4647
:1001600004461946FFF7F0FF204610BD064C074D28
:1001700006E0E06840F0010394E807009847103477
:10018000AC42F6D3FFF7B6FF202D0008402D000843
:10019000FEE7000040F28800C2F2000000F0CAB999
:1001A000704700007047000010B581B00022009237
:1001B00090F82420012A03D10221084601B010BD85
:1001C0004B680122062B80F8242017D8D0F800C0F5
:1001D00003EB83035A1F1F23DCF834E003FA02F415
:1001E0000B682EEA040403FA02F22243CCF834200E
:1001F000092B03EB430219D936E000BFD0F800C049
:100200000C2B03EB83021DD8233A1F23DCF830E0CC
:1002100003FA02F40B682EEA040403FA02F2224302
:10022000CCF83020092B03EB43021DD8DCF810304A
:10023000072489689440A34391401943CCF81010D7
:10024000002130E0413A1F23DCF82CE003FA02F4ED
:100250000B682EEA040403FA02F22243CCF82C20A5
:10026000092B03EB4302E1D9DCF80CE01E3A07242A
:10027000896894402EEA0404914023F0010221434E
:10028000102ACCF80C100DD142F20841C4F2010141
:10029000A1F1080294450DD0816A41F020018162EC
:1002A000012100E00021002280F82420084601B04E
:1002B00010BD00BF0A68120230D40A68102B42F445
:1002C00000020A602CD140F20801C2F20001096864
:1002D0004DF68362C4F21B32A1FB0212910C01EBBA
:1002E0008101490000910099E1B100990139009123
:1002F0000099C9B10099013900910099B1B10099F3
:1003000001390091009999B1009901390091009942
:1003100000294FF00001E8D1C5E700BF0021C2E786
:100320000021C0E70021BEE70021BCE70021BAE7B9
:100330000021B8E7B0B5002800F0A8800446806A24
:1003400020B121688868C0070BD114E00020E0626A
:1003500084F82400204600F09BF821688868C007D4
:1003600009D0886820F00100886000F01BFB21683C
:100370008A68D20726D1A06AC0063AD4A06A41F2A0
:10038000021290430230A062E069D4E9013240EAEF
:10039000030C531EB3FA83F35D091346B2F5807F55
:1003A00018BF2B02207D257B01284CEA450030D167
:1003B00035B3A56A45F02005A562E56A45F001055B
:1003C000E56226E0054602E08868C007D3D000F069
:1003D000E9FA401B21680328F6D38868C007F3D0E8
:1003E000A06A40F01000A062E06A40F00100E06204
:1003F000A06AA06A40F01000A0620120B0BD00BF5A
:10040000D4F818C04EF60005CFF6FF7505EB4C3555
:100410002B434D68B2F5807F25F4694543EA050317
:100420004B608B684FF2FD75CFF6E17503EA05036B
:1004300043EA00038B6001D0012A07D1226900231F
:10044000CFF6F07303EB025201E000BF0022CB6A4B
:1004500023F470031A43CA62896840F6FE62CFF63D
:100460001F721140814207D10020E062A16A01227F
:1004700062F30101A162B0BDA06A40F0100020F05B
:100480000200A062E06A40F00100E0620120B0BD1D
:1004900070B586B0044640F60000C4F20100216841
:1004A00000F5E052002691420596049602D006B06F
:1004B00070BD00BF41F21801C4F202010A6842F4A3
:1004C00000720A600A6802F400720192019A0A68D6
:1004D00042F004020A60096801F0040101910199E7
:1004E000062102910321039102A900F041F940F293
:1004F00088050820C2F20005C4F202004FF48072A1
:10050000C5E9000605F1100080214FF480634FF02B
:10051000200C80E80C102846C5E90261EE6100F06D
:10052000D7F8002818BFFFF73DFE25626C6206B0C1
:1005300070BD000010B5D0E90FCE0168DCF80030C6
:100540000A6823FA0EF35C072AD512F0040427D0B8
:100550000A68920603D40A6822F004020A602F2275
:10056000C4F20202914240F20402C4F2020259DDD6
:100570003023C4F20203994270D04423C4F2020330
:10058000994271D05823C4F20203994278D14FF4B2
:1005900080231360C16A002940F097806EE000BF9D
:1005A0009C0727D512F0020424D00A68920606D4CC
:1005B0000A6822F00A020A60012280F821202F2214
:1005C000C4F20202914240F20402C4F2020239DD96
:1005D0003023C4F2020399425ED04423C4F20203E2
:1005E00099425DD05823C4F2020399425ED14FF480
:1005F000003363E01B0741D512F0080208BF10BDAD
:100600000A6822F00E020A60012101FA0EF2CCF80B
:1006100004208163016B4FF480720029028454D15D
:100620002CE000BF0823C4F20203994222D01C230D
:10063000C4F20203994223D140231360C16A002906
:1006400043D11BE00823C4F2020399422CD01C239F
:10065000C4F20203994229D120232FE04FF4806392
:100660001360C16A89BB09E04FF480431360C16A1B
:1006700059BB03E004231360C16A31BB10BD00BF46
:1006800002F168044FF08063A14208BF4FF4800379
:100690001360C16AC9B9F1E74FF400730EE000BFFF
:1006A0004FF400530AE000BF022307E002F16804A0
:1006B0004FF00073A14208BF4FF400131360816A2A
:1006C0000022002980F82020D8D0BDE8104008473B
:1006D000002804BF012070472DE9F04101684FF662
:1006E000F872CBF6FD724CF6CD430A44CCF6CC43FF
:1006F000A2FB03236FF0030707EA93030027C4F26A
:10070000020700F1040E00F11008C0E90F739EE823
:10071000045098E870010B6843F6F077BB431A4326
:1007200042EA0C0242EA0E0222432A43324342EAE0
:1007300008020A6000214FF4807281630284BDE8E0
:10074000F041084670470000B0B5044600F02AF9B1
:10075000054640F20000C2F200000078611C18BF9C
:10076000044400BF00F01EF9401BA042FAD3B0BD04
:100770002DE9F04F82B00E68002E00F0038140F2A8
:100780000C4C41F200424FF6FF7EC4F2010CC4F261
:100790000102042700240123C1F2100E4FF0000AC9
:1007A0004FF00009904208BF0327009745E000BFC3
:1007B000012704F00C030F229A402BEA020207FAE9
:1007C00003F34FEA9A051A4346F82520D1F804B0FE
:1007D00040F20045C4F201055FEACB322A6854BFFB
:1007E00022EA080242EA08022A606A685FEA8B335A
:1007F00054BF22EA080242EA08026A605FEACB2399
:10080000AA6854BF22EA080242EA08025FEA8B2380
:10081000AA60DCF800204FF0010354BF22EA08026E
:1008200042EA0802CCF800200E680AF1010A36FA02
:100830000AF204F1040400F0A58003FA0AF816EAAB
:10084000080FF1D04E68764512DC122E56D8DFE83C
:1008500006F0350B45495555555555555555555582
:100860005555554D510000BFD1F80C9046E000BFE2
:100870004FF6FF72C1F2210296420FDC0022C1F254
:10088000110296421AD00022C1F21202964215D0ED
:100890000022C1F22102964210D02FE00022C1F2C4
:1008A000220296420AD00022C1F23102964205D0BD
:1008B0000022C1F23202964220D100BF8A684AB1BA
:1008C000012A14BFC0F81480C0F810804FF0080946
:1008D00014E000BF4FF0040910E000BFCA6802F145
:1008E00008090BE04FF0000908E000BFCA6802F1F8
:1008F000040903E0CA6802F10C0900BF224606465B
:10090000BAF1080F24BF203A043637680F25954006
:1009100027EA050509FA02F22A433260CA79D206AB
:100920007FF582AF41F21803C4F202031A6842F065
:1009300001021A601A6802F001020192019A40F263
:100940000042C4F20102A2F57E762AF0030256F8B4
:1009500002B040F60002C4F20102904210D040F60C
:100960000042C4F2010290423FF422AF41F2000281
:10097000C4F20102009F904208BF022719E700BF9E
:10098000002716E702B0BDE8F08F0000806808403D
:1009900018BF012070470000002A08BF0904016148
:1009A0007047000040F2CC00C2F2000000687047BF
:1009B00040F2000040F2CC01C2F20000C2F200019D
:1009C00000780A68104408607047000080B542F261
:1009D0000000C4F20200016841F010010160032030
:1009E00000F08EF8002000F005F800F027F8002055
:1009F00080BD000070B540F20006C2F2000640F271
:100A000008013278C2F200014FF47A730968B3FB2F
:100A1000F2F20446B1FBF2F1084600F0C1FB0F2CE4
:100A20004FF0010508D838B94FF0FF3021460022B9
:100A3000002500F039F87460284670BD82B041F29C
:100A40001800C4F202000168022241F001010160B5
:100A5000016801F0010101910199416841F0805163
:100A60004160406800F08050009000980420C4F27B
:100A70000100016862F31A61016002B07047000072
:100A8000002848BF7047C1B200F01F00012202FADF
:100A900000F04EF20012CEF2000242EAD10121F043
:100AA000030108607047000010B54EF60C5CCEF2F2
:100AB000000CDCF80030C3F3022E8EF00704042C87
:100AC00028BF0424BEF103034FF0FF3E0EFA04F4E6
:100AD00038BF0023A14399400EFA03F39A43114310
:100AE00000F00F0200F160430901043A03F564438A
:100AF0006244002848BF02F10C03197010BD0000C9
:100B00004EF60C51CEF200010A684FF6FF031A4070
:100B100060F30A2242F0806040F0FD700860704788
:100B20002DE9F04182B00446007841F21C06C0076E
:100B3000C4F202064AD0306810F0805808D13068FC
:100B400040F080503060306800F080500190019893
:100B500047F20007C4F200073868C00512D43868AD
:100B600040F480703860FFF71DFF05463868C00507
:100B700008D4FFF717FF401B6428F7D9032002B001
:100B8000BDE8F081706810F4407012D0616801F423
:100B9000407188420DD0706840F24042C4F2422257
:100BA000012320F4407113600023C00713607160BB
:100BB0002AD17068616820F440700843B8F1000FD2
:100BC000706003D1306820F0805030602068810769
:100BD00007D556F8181CA26821F44041114346F885
:100BE000181CC00604D4002002B0BDE8F08100BF8C
:100BF00056F8180CE16820F48000084346F8180CF9
:100C0000002002B0BDE8F081FFF7CCFE054641F2BE
:100C1000883700BF70688007CBD4FFF7C3FE401B46
:100C2000B8424FF00300F5D9EBE700002DE9F0439F
:100C300081B0002800F0858042F20008C4F202086A
:100C40000446D8F800000D4600F0070088420CD298
:100C5000D8F8000020F007002843C8F80000D8F8B2
:100C6000000000F00700A8426BD1206841F204099F
:100C70008107C4F2020917D5410705D5D9F800103C
:100C800041F4E061C9F80010010705D5D9F800105A
:100C900041F46051C9F80010D9F80010A26821F0A1
:100CA000F0011143C9F80010C00741D1D8F8000085
:100CB00000F00700A8420CD9D8F8000020F0070087
:100CC0002843C8F80000D8F8000000F00700A84248
:100CD00037D12068410707D5D9F80010E26821F420
:100CE000E0611143C9F80010000708D5D9F80000E9
:100CF000216920F4605040EAC100C9F80000D9F829
:100D0000002002F00C00082841F20020C0F27A0016
:100D100050D142F60833C2F38341C0F60003595C58
:100D2000D2033BD440F60010C0F23D00484341E0FE
:100D3000606802280AD001282AD159F8041C8903C6
:100D400008D4012001B0BDE8F08300BF59F8041CAD
:100D50008901F6D5D9F8001021F003010843C9F83C
:100D60000000FFF71FFE064641F28837D9F8000061
:100D7000616800F00C00B0EB810F97D0FFF712FE16
:100D8000801BB842F2D9032001B0BDE8F08300BF58
:100D900059F8041C8907D4D5DCE700BFD9F8002036
:100DA00042F6F623C2F34042C0F600039A5C484381
:100DB000B0FBF2F0D9F8001042F6F822C1F30311AB
:100DC000C0F60002515C40F2080220FA01F140F244
:100DD0000400C2F200000068C2F200021160FFF7D6
:100DE00009FE002001B0BDE8F08300002DE9F041CC
:100DF00082B0002868D00446007841F20006C0079F
:100E0000C4F2020625D0706800F00C0004281BD044
:100E1000706800F00C00082802D17068C00313D479
:100E20006068002800F06881B0F5A02F00F07C8198
:100E3000B0F5803F00F07C81306820F48030306075
:100E4000306820F4802076E13068800301D5606846
:100E5000D0B32078800718D5706810F00C0F07D039
:100E6000706800F00C0008286ED17068C0036BD465
:100E70003068800702D52069012825D13068616972
:100E800020F0F80040EAC1003060207800071FD44D
:100E90002078400732D4E56995B1706800F00C0005
:100EA000082840F08F80012D0ED07068216A00F470
:100EB00080328A4208D1616A00F47010884203D1FE
:100EC000002002B0BDE8F081012002B0BDE8F08151
:100ED000A069002862D00020C4F242200121C0F89D
:100EE0008014FFF75FFD0546706A800700F18C8073
:100EF000FFF758FD401B0228F6D92AE1F06910F0EF
:100F0000805808D1F06940F08050F061F06900F03D
:100F100080500090009847F20007C4F2000738683C
:100F2000C00529D4386840F480703860FFF73AFD76
:100F3000054600BF3868C0051ED4FFF733FD401BCF
:100F40006428F7D905E100BF2069002840F20000BD
:100F5000C4F2422000F0828001210160FFF722FDEF
:100F6000054600BF306880073FF588AFFFF71AFDE0
:100F7000401B0228F6D9ECE0E068002800F08080F1
:100F8000052800F09780012800F09880306A20F052
:100F900001003062306A20F0040092E00020C4F2C8
:100FA00042200021C0F88014FFF7FCFC054600BF7A
:100FB000706A80077FF56CAFFFF7F4FC401B0228D6
:100FC000F6D9C6E00027C4F2422700203866FFF7B2
:100FD000E9FC022D05460BD13068800140F1BE804E
:100FE000FFF7E0FC401B02284FF00300F4D968E74C
:100FF000306880017FF564AFFFF7D4FC401B022806
:101000004FF00300F4D95CE740F20800C2F20000A0
:10101000006844F6D351C1F26201A0FB0101480A05
:10102000019000BF00BF0198411E002801913FF4CC
:101030002FAF00BF0198411E002801913FF428AF57
:1010400000BF0198411E002801913FF421AF00BF6D
:101050000198411E00280191E4D119E700210160A7
:10106000FFF7A0FC054600BF306880077FF50DAF95
:10107000FFF798FC401B02284FF00300F4D920E74B
:10108000306A20F001003062306A20F004003062E3
:10109000FFF788FC054641F2883700BF306A8007B9
:1010A00020D5FFF77FFC401BB8424FF00300F5D975
:1010B00007E700BF306A40F004003062306A40F059
:1010C00001003062FFF76EFC054641F2883700BF31
:1010D000306A800706D4FFF765FC401BB842F7D999
:1010E00037E000BFB8F1000F7FF4D5AEF06920F013
:1010F0008050F061CFE600BF306820F4803030606F
:10110000306820F480203060FFF74CFC054600BFBB
:10111000306880037FF59DAEFFF744FC401B6428D8
:101120004FF00300F4D9CCE6306840F48020306002
:10113000306840F480303060FFF734FC054600BF73
:10114000306880033FF585AEFFF72CFC401B642818
:10115000F6D9032002B0BDE8F08100BF206AB0F5E7
:10116000803F05D17168A26821F40031114371609C
:101170007168626A21F474111143084370600120A0
:101180003866FFF70FFC0446306880013FF598AEE3
:10119000FFF708FC001B02284FF00300F4D990E68B
:1011A000411E0020B0EB116F1CBF012070474EF2B2
:1011B0001002CEF2000251604EF62351CEF2000131
:1011C000F0230B700721906011607047FEE700006C
:1011D000B0B540F60044C4F201040546204608219B
:1011E0000022FFF7D9FB204610210022FFF7D4FB95
:1011F000204620210122FFF7CFFBC5F30012204635
:101200004021FFF7C9FBC5F3401220468021FFF7BC
:10121000C3FBC5F3801220464FF48071FFF7BCFB7F
:10122000EA0920464FF40071FFF7B6FB2046202163
:101230000022FFF7B1FB0A20FFF786FA20462021A3
:101240000122FFF7A9FB05F0010220464021FFF72C
:10125000A3FBC5F3400220468021FFF79DFBC5F3A9
:10126000800220464FF48071FFF796FBC5F3C00261
:1012700020464FF40071FFF78FFB2046202100220B
:10128000FFF78AFB0A20BDE8B040FFF75DBA000017
:10129000FEE7000070470000704700007047000044
:1012A000FFF786BB70470000FEE70000D0B040F6B5
:1012B0000044C4F20104FFF789FB46AD281D242138
:1012C000FEF749FF102000264FF0020A4FF00108F8
:1012D0004B9028464096CDE93E66CDF818A1CDF852
:1012E00028814D96FFF782FD0F20CDE9410641A8E8
:1012F0000021CDE943664596FFF798FC3DA8CDF85F
:10130000F4A03F96FFF70CFC41F21805C4F2020569
:10131000286804F5806B40F01000286028684FF4BE
:10132000005100F01000469046982868002240F0D6
:101330000400286028684FF4005700F0040046902D
:101340004698286840F008002860286800F00800E7
:10135000469046985846FFF71FFBA4F5806948461B
:1013600049F660310022FFF717FB20464FF47E71EB
:101370000022FFF711FBCDE9467846AF58463946C3
:10138000CDE9486ACDF8F0B0FFF7F2F9182046A988
:1013900081E8410148463946FFF7EAF949F66030ED
:1013A000CDE9460848463946CDE9486AFFF7E0F9F5
:1013B0004FF47E70CDE9460820463946CDE9486AAB
:1013C000FFF7D6F955F8040C002140F0010045F86C
:1013D000040C55F8040C002200F0010046904698D9
:1013E0000B20FFF761FB0B20FFF74AFB40F2100BCD
:1013F000C2F2000B04F5C0505F4647F8480F4FF4A7
:1014000080704FF46021C7E9016038463E733E7535
:10141000F961C7F810A0FEF78DFFCDE94688CDF839
:1014200020810DF58C7838464146FEF7BDFE3846E2
:10143000414640F20108CDE946AAC8F20008FEF78D
:10144000B3FE0320FFF7C4FE0220FFF7C1FE2820F1
:10145000FFF7BEFE0620FFF7BBFE0C20FFF7B8FE2D
:101460000120FFF7B5FE49A04168309181682F91B6
:10147000C1682E9101692D914169008B2C912B90AF
:1014800049A041682A9181682991C1682891016920
:101490004069279126904AA041683691816835912C
:1014A000C168349101693391416980693291319009
:1014B0004AA041683B9181683A91C16839910169BC
:1014C000808A389137904BA041682591816824919A
:1014D000C168239101692291818A807D21912090A8
:1014E00042F6D840C0F6000001681F9141681E9185
:1014F00081681D91C1681C9101691B91818A807D61
:101500001A91199042F60850C0F600000168059142
:101510004168049181680391C16802910169808AE0
:101520000191009042F6F040C0F6000001680B9176
:1015300041680A9181680991C1680891016940690F
:101540000791069042F6A440C0F600000168189189
:101550004168179181681691C168159101691491CC
:101560004169007E1391129042F6C040C0F600001F
:10157000016811914168109181680F91C1680E91C5
:10158000016940690D910C9048E000BF646F6E677F
:101590003A6E67617920636F206D7561202020208D
:1015A00020202020200000006D6F3A6E67617920B6
:1015B0006B68756D206D7561202020202020200033
:1015C000646F6E673A20546F69202020202020200D
:1015D000202020202020202020202000636865205B
:1015E000646F3A74687520636F6E67202020202036
:1015F000200000006D6F20202020202020202020AF
:1016000020202020202020202020000048462021CB
:10161000FFF7BCF9002801F0F78000BF3C9D4FF4B4
:10162000005128460122FFF7B7F94FF4FA70FFF78F
:101630008BF828464FF400510022FFF7ADF94FF424
:10164000FA70FFF781F848460821FFF79FF9DBF8A9
:101650000410002804BF0131CBF80410C80740F083
:101660009D842046082100224646FFF795F9204632
:1016700010210022FFF790F9204620210122FFF7D8
:101680008BF9204640210022FFF786F92046802171
:101690000022FFF781F920464FF480710022FFF706
:1016A0007BF920464FF400710122FFF775F92046BF
:1016B00020210022FFF770F90A20FFF745F82046A5
:1016C00020210122FFF768F9204640210022FFF780
:1016D00063F9204680210022FFF75EF920464FF48F
:1016E00080710022FFF758F920464FF40071002264
:1016F000FFF752F9204620210022FFF74DF90A207A
:10170000FFF722F80BF1280A42F618315046C0F6CE
:1017100000014FF4C572FEF705FD4FF06308574610
:10172000204608210122FFF737F920461021002228
:10173000FFF732F9204620210122FFF72DF9C8F3E7
:101740000012204640215FFA88F5FFF725F9C8F31B
:10175000401220468021FFF71FF9C8F3801220466F
:101760004FF48071FFF718F9EA0920464FF4007131
:10177000FFF712F9204620210022FFF70DF90A2079
:10178000FEF7E2FF204620210122FFF705F908F0CD
:10179000010220464021FFF7FFF8C8F3400220462F
:1017A0008021FFF7F9F8C8F3800220464FF48071DA
:1017B000FFF7F2F8C8F3C00220464FF40071FFF7BC
:1017C000EBF8204620210022FFF7E6F80A20FEF77A
:1017D000BBFF17F8018FB8F1000FA1D148464FF4B5
:1017E00080710122FFF7D8F848464FF400710022BB
:1017F000FFF7D2F8BBF8000040F20E618842B04615
:1018000000F24881BBF80200B0F5166F00F2428189
:10181000204608210022FFF7BFF8204610210022B1
:10182000FFF7BAF8204620210122FFF7B5F820463D
:1018300040210022FFF7B0F8204680210022FFF768
:10184000ABF820464FF480710122FFF7A5F820463F
:101850004FF400710122FFF79FF82046202100225B
:10186000FFF79AF80A20FEF76FFF20462021012299
:10187000FFF792F8204640210022FFF78DF820461E
:1018800080210022FFF788F820464FF48071002263
:10189000FFF782F820464FF400710022FFF77CF832
:1018A000204620210022FFF777F80A20FEF74CFFA0
:1018B0005FF828034FF40061CBF82800309801222C
:1018C000CBF82C002F98CBF830002E98CBF83400B2
:1018D0002D98CBF838002C98CBF83C002B98ABF81F
:1018E00040004846FFF758F848464FF4805101221F
:1018F000FFF752F89BF82870002F5BD02046082194
:101900000122FFF749F8204610210022FFF744F892
:10191000204620210122FFF73FF8C7F3001220469E
:101920004021FDB2FFF738F8C7F34012204680216E
:10193000FFF732F8C7F3801220464FF48071FFF7AB
:101940002BF8EA0920464FF40071FFF725F82046EE
:1019500020210022FFF720F80A20FEF7F5FE20469E
:1019600020210122FFF718F807F00102204640214C
:10197000FFF712F8C7F3400220468021FFF70CF86A
:10198000C7F3800220464FF48071FFF705F8C7F3D4
:10199000C00220464FF40071FEF7FEFF20462021D2
:1019A0000022FEF7F9FF0A20FEF7CEFE1AF8017FAB
:1019B000002FA3D148462021FEF7E8FF01280FD1D0
:1019C00048464021FEF7E2FF012809D148464FF47E
:1019D0000041FEF7DBFF002804BF0020CBF80C001D
:1019E00048462021FEF7D2FF90B948464021FEF735
:1019F000CDFF68B948464FF40041FEF7C7FF38B93C
:101A0000DBF80800002804BF0020CBF80C0000BF62
:101A100048462021FEF7BAFF01283BD14846402125
:101A2000FEF7B4FF012835D148464FF40041FEF7D8
:101A3000ADFF78BBDBF80C0060BB484620210022DC
:101A4000FEF7AAFF484640210122FEF7A5FF4846BF
:101A50004FF400410122FEF79FFF40F20C00C2F25A
:101A600000000068FEF770FE48464FF40041002277
:101A7000FEF792FF484640210022FEF78DFF4846C0
:101A800020210022FEF788FF0020CBF8080001206B
:101A9000CBF80C00BBF8000040F20E61884200F267
:101AA0003D81BBF80210B1F5166F40F23781204638
:101AB00008210022FEF770FF204610210022FEF7C9
:101AC0006BFF204620210122FEF766FF20464021C1
:101AD0000022FEF761FF204680210022FEF75CFF16
:101AE00020464FF480710122FEF756FF20464FF446
:101AF00000710122FEF750FF204620210022FEF750
:101B00004BFF0A20FEF720FE204620210122FEF78F
:101B100043FF204640210022FEF73EFF2046802161
:101B20000022FEF739FF20464FF480710022FEF7B5
:101B300033FF20464FF400710022FEF72DFF2046B0
:101B400020210022FEF728FF0A20FEF7FDFDDFF826
:101B5000240F5F4647F8280F2A986D25786029984A
:101B6000B8602898F860279838612698786100BF97
:101B7000204608210122FEF70FFF204610210022F7
:101B8000FEF70AFF204620210122FEF705FFC5F3DC
:101B9000001220464021EEB2FEF7FEFEC5F34012D1
:101BA00020468021FEF7F8FEC5F3801220464FF450
:101BB0008071FEF7F1FEF20920464FF40071FEF746
:101BC000EBFE204620210022FEF7E6FE0A20FEF76B
:101BD000BBFD204620210122FEF7DEFE05F00102BA
:101BE00020464021FEF7D8FEC5F340022046802162
:101BF000FEF7D2FEC5F3800220464FF48071FEF757
:101C0000CBFEC5F3C00220464FF40071FEF7C4FEC0
:101C1000204620210022FEF7BFFE0A20FEF794FD99
:101C200017F8015F002DA3D148464FF40061002250
:101C3000FEF7B2FE48464FF480510022FEF7ACFE9C
:101C400048462021FEF7A2FEC0BB48464021FEF7D1
:101C50009DFE98BB48464FF40041FEF797FE68BBD7
:101C6000DBF8100050BB484620210122FEF794FE0D
:101C7000484640210022FEF78FFE48464FF40041BF
:101C80000122FEF789FE40F20C00C2F2000000685B
:101C9000FEF75AFD48464FF400410022FEF77CFE55
:101CA000484640210122FEF777FE484620210122C6
:101CB000FEF772FE0120CBF8100000BF484620213D
:101CC000FEF764FE012813D148464021FEF75EFE70
:101CD00001280DD148464FF40041FEF757FE38B9B0
:101CE000DBF81400002804BF0020CBF8100000BF70
:101CF00048462021FEF74AFE70B948464021FEF7CB
:101D000045FE48B948464FF40041FEF73FFE002823
:101D100004BF0020CBF81000BBF8000040F20F61B8
:101D20008842C0F03B81204608210022FEF734FEA5
:101D3000204610210022FEF72FFE204620210122FE
:101D4000FEF72AFE204640210022FEF725FE20460F
:101D500080210022FEF720FE20464FF480710122F0
:101D6000FEF71AFE20464FF400710122FEF714FE22
:101D7000204620210022FEF70FFE0A20FEF7E4FC99
:101D8000204620210122FEF707FE204640210022A6
:101D9000FEF702FE204680210022FEF7FDFD2046D0
:101DA0004FF480710022FEF7F7FD20464FF40071DA
:101DB0000022FEF7F1FD204620210022FEF7ECFD77
:101DC0000A20FEF7C1FCDFF8C40C5F4647F8280F75
:101DD0003698642578603598B8603498F860339800
:101DE0003861329878613198B86100BF2046082187
:101DF0000122FEF7D1FD204610210022FEF7CCFD86
:101E0000204620210122FEF7C7FDC5F3001220461F
:101E10004021EEB2FEF7C0FDC5F3401220468021FE
:101E2000FEF7BAFDC5F3801220464FF48071FEF72D
:101E3000B3FDF20920464FF40071FEF7ADFD2046D8
:101E400020210022FEF7A8FD0A20FEF77DFC204697
:101E500020210122FEF7A0FD05F0010220464021CD
:101E6000FEF79AFDC5F3400220468021FEF794FD5F
:101E7000C5F3800220464FF48071FEF78DFDC5F357
:101E8000C00220464FF40071FEF786FD2046202157
:101E90000022FEF781FD0A20FEF756FC17F8015FCD
:101EA000002DA3D148464FF400610122FEF774FDD6
:101EB00048464FF480510122FEF76EFD484620212E
:101EC000FEF764FD01280FD148464021FEF75EFD74
:101ED000012809D148464FF40041FEF757FD00287C
:101EE00004BF0020CBF8240048462021FEF74EFD19
:101EF00090B948464021FEF749FD68B948464FF47D
:101F00000041FEF743FD38B9DBF82000002804BF8C
:101F10000020CBF8240000BF48462021FEF736FD04
:101F200001283BD148464021FEF730FD012835D13C
:101F300048464FF40041FEF729FD78BBDBF824004A
:101F400060BB484620210022FEF726FD484640217E
:101F50000122FEF721FD48464FF400410122FEF721
:101F60001BFD40F20C00C2F200000068FEF7ECFB23
:101F700048464FF400410022FEF70EFD484640213E
:101F80000022FEF709FD484620210022FEF704FD4D
:101F90000020CBF820000120CBF82400DBF804005F
:101FA00000EA080001287FF439AB2046082100220E
:101FB000FEF7F2FC204610210022FEF7EDFC204641
:101FC00020210122FEF7E8FC204640210022FEF7F6
:101FD000E3FC204680210022FEF7DEFC20464FF481
:101FE00080710022FEF7D8FC20464FF400710122D8
:101FF000FEF7D2FC204620210022FEF7CDFC0A206D
:10200000FEF7A2FB204620210122FEF7C5FC204658
:1020100040210022FEF7C0FC204680210022FEF76E
:10202000BBFC20464FF480710022FEF7B5FC204631
:102030004FF400710022FEF7AFFC20462021002261
:10204000FEF7AAFC0A20FEF77FFBDFF85C0A5F467A
:1020500047F8280F3B98632578603A98B86039981C
:10206000F860389838613798B88200BF2046082158
:102070000122FEF791FC204610210022FEF78CFC85
:10208000204620210122FEF787FCC5F300122046DE
:102090004021EEB2FEF780FCC5F3401220468021BD
:1020A000FEF77AFCC5F3801220464FF48071FEF7EC
:1020B00073FCF20920464FF40071FEF76DFC2046D8
:1020C00020210022FEF768FC0A20FEF73DFB204697
:1020D00020210122FEF760FC05F00102204640218C
:1020E000FEF75AFCC5F3400220468021FEF754FC5F
:1020F000C5F3800220464FF48071FEF74DFCC5F316
:10210000C00220464FF40071FEF746FC2046202115
:102110000022FEF741FC0A20FEF716FB17F8015FCC
:10212000002DA3D148462021FEF730FC012840F0C5
:10213000CD8048464021FEF729FC012840F0C680AA
:1021400048464FF40041FEF721FC002840F0BE80D5
:10215000204608210022FEF71FFC20461021002205
:10216000FEF71AFC204620210122FEF715FC20462E
:1021700040210022FEF710FC204680210022FEF7BD
:102180000BFC20464FF480710122FEF705FC20462F
:102190004FF400710122FEF7FFFB204620210022B0
:1021A000FEF7FAFB0A20FEF7CFFA20462021012293
:1021B000FEF7F2FB204640210022FEF7EDFB204611
:1021C00080210022FEF7E8FB20464FF480710022B8
:1021D000FEF7E2FB20464FF400710022FEF7DCFB25
:1021E000204620210022FEF7D7FB0A20FEF7ACFA9A
:1021F000DFF8CC085F4647F8280F25986D257860F2
:102200002498B8602398F860229838612198B882A1
:102210002098B875204608210122FEF7BDFB204614
:1022200010210022FEF7B8FB204620210122FEF7F4
:10223000B3FBC5F3001220464021EEB2FEF7ACFB23
:10224000C5F3401220468021FEF7A6FBC5F380129D
:1022500020464FF48071FEF79FFBF20920464FF4B1
:102260000071FEF799FB204620210022FEF794FB27
:102270000A20FEF769FA204620210122FEF78CFB96
:1022800005F0010220464021FEF786FBC5F340021F
:1022900020468021FEF780FBC5F3800220464FF4E4
:1022A0008071FEF779FBC5F3C00220464FF4007140
:1022B000FEF772FB204620210022FEF76DFB0A206C
:1022C000FEF742FA17F8015F002DA3D148462021FE
:1022D000FEF75CFB002840F0CD8048464021FEF729
:1022E00055FB002840F0C68048464FF40041FEF7F9
:1022F0004DFB002840F0BE80204608210022FEF75A
:102300004BFB204610210022FEF746FB20462021F1
:102310000122FEF741FB204640210022FEF73CFB54
:10232000204680210022FEF737FB20464FF48071C3
:102330000122FEF731FB20464FF400710122FEF727
:102340002BFB204620210022FEF726FB0A20FEF769
:10235000FBF9204620210122FEF71EFB20464021EA
:102360000022FEF719FB204680210022FEF714FB15
:1023700020464FF480710022FEF70EFB20464FF4FA
:1023800000710022FEF708FB204620210022FEF704
:1023900003FB0A20FEF7D8F91F985F4647F8280F7D
:1023A0001E98642578601D98B8601C98F8601B988A
:1023B00038611A98B8821998B87500BF204608216C
:1023C0000122FEF7E9FA204610210022FEF7E4FA86
:1023D000204620210122FEF7DFFAC5F30012204635
:1023E0004021EEB2FEF7D8FAC5F340122046802114
:1023F000FEF7D2FAC5F3801220464FF48071FEF743
:10240000CBFAF20920464FF40071FEF7C5FA2046D8
:1024100020210022FEF7C0FA0A20FEF795F9204697
:1024200020210122FEF7B8FA05F0010220464021E2
:10243000FEF7B2FAC5F3400220468021FEF7ACFA5F
:10244000C5F3800220464FF48071FEF7A5FAC5F36C
:10245000C00220464FF40071FEF79EFA204620216C
:102460000022FEF799FA0A20FEF76EF917F8015FCD
:10247000002DA3D148464FF480710022FEF78CFA5C
:1024800048464FF400710122FEF786FA48461021B3
:10249000FEF77CFA00287FF4C1A8DBE906100130C2
:1024A0000131CBE9061048462021FEF76FFA0028DB
:1024B00040F0C38048464021FEF768FA002840F00B
:1024C000BC80DBF8180000EA0800012840F0B58065
:1024D000484620210122FEF75FFA484640210022AB
:1024E000FEF75AFA48464FF400410122FEF754FA2B
:1024F00048462021FEF74AFA01287BD14846402170
:10250000FEF744FA002875D148464FF40041FEF723
:102510003DFA01286ED1C020FEF75AFE05985F46AD
:1025200047F8280F0498742578600398B8600298DB
:10253000F860019838610098B88200BF20460821F1
:102540000122FEF729FA204610210022FEF724FA84
:10255000204620210122FEF71FFAC5F30012204673
:102560004021EEB2FEF718FAC5F340122046802152
:10257000FEF712FAC5F3801220464FF48071FEF781
:102580000BFAF20920464FF40071FEF705FA2046D7
:1025900020210022FEF700FA0A20FEF7D5F8204697
:1025A00020210122FEF7F8F905F001022046402122
:1025B000FEF7F2F9C5F3400220468021FEF7ECF960
:1025C000C5F3800220464FF48071FEF7E5F9C5F3AC
:1025D000C00220464FF40071FEF7DEF920462021AC
:1025E0000022FEF7D9F90A20FEF7AEF817F8015FCE
:1025F000002DA3D140F20C00C2F200000068FEF7EB
:10260000A3F848464FF400410022FEF7C5F94846BA
:1026100020210122FEF7C0F9484640210122FEF7A1
:10262000BBF948464FF400610022FEF7B5F9484671
:102630004FF480510022FEF7AFF948462021FEF703
:10264000A5F901280BD148464021FEF79FF9012842
:1026500004BF9BF81C005FEAC07000F0558148463B
:102660002021FEF793F901287EF4D0AF484640219F
:10267000FEF78CF901287EF4C9AF48464FF40041BB
:10268000FEF784F900287EF4C1AF2046082100221D
:10269000FEF782F9204610210022FEF77DF9204640
:1026A00020210122FEF778F9204640210022FEF782
:1026B00073F9204680210022FEF76EF920464FF480
:1026C00080710122FEF768F920464FF40071012263
:1026D000FEF762F9204620210022FEF75DF90A206C
:1026E000FEF732F8204620210122FEF755F9204658
:1026F00040210022FEF750F9204680210022FEF7FB
:102700004BF920464FF480710022FEF745F9204630
:102710004FF400710022FEF73FF9204620210022ED
:10272000FEF73AF90A20FEF70FF818985F4647F8C7
:10273000280F17986D2578601698B8601598F8607E
:1027400014983861139878611298387620460821D9
:102750000122FEF721F9204610210022FEF71CF984
:10276000204620210122FEF717F9C5F3001220466A
:102770004021EEB2FEF710F9C5F340122046802149
:10278000FEF70AF9C5F3801220464FF48071FEF778
:1027900003F9F20920464FF40071FEF7FDF82046D8
:1027A00020210022FEF7F8F80A20FDF7CDFF204691
:1027B00020210122FEF7F0F805F001022046402119
:1027C000FEF7EAF8C5F3400220468021FEF7E4F860
:1027D000C5F3800220464FF48071FEF7DDF8C5F3A3
:1027E000C00220464FF40071FEF7D6F820462021A3
:1027F0000022FEF7D1F80A20FDF7A6FF17F8015FC7
:10280000002DA3D1FEF702BF48464021FEF7BEF8D7
:1028100000287EF403AF48464FF40041FEF7B6F8B7
:1028200000287EF4FBAEC020FEF7D2FC11985F4674
:1028300047F8280F1098642578600F98B8600E98B4
:10284000F8600D9838610C98786100BF2046082127
:102850000122FEF7A1F8204610210022FEF79CF885
:10286000204620210122FEF797F8C5F300122046EA
:102870004021EEB2FEF790F8C5F3401220468021C9
:10288000FEF78AF8C5F3801220464FF48071FEF7F8
:1028900083F8F20920464FF40071FEF77DF82046D8
:1028A00020210022FEF778F80A20FDF74DFF204690
:1028B00020210122FEF770F805F001022046402198
:1028C000FEF76AF8C5F3400220468021FEF764F85F
:1028D000C5F3800220464FF48071FEF75DF8C5F322
:1028E000C00220464FF40071FEF756F82046202122
:1028F0000022FEF751F80A20FDF726FF17F8015FC6
:10290000002DA3D1FEF78ABE484620210022FEF703
:1029100043F8484640210122FEF73EF848464FF46E
:1029200000410122FEF738F848462021FEF72EF834
:1029300000287BD148464021FEF728F8012875D1B0
:1029400048464FF40041FEF721F801286ED1C0201F
:10295000FEF73EFC0B985F4647F8280F0A9874254F
:1029600078600998B8600898F86007983861069808
:10297000786100BF204608210122FEF70DF82046AD
:1029800010210022FEF708F8204620210122FEF740
:1029900003F8C5F3001220464021EEB2FDF7FCFF1C
:1029A000C5F3401220468021FDF7F6FFC5F38012E3
:1029B00020464FF48071FDF7EFFFF20920464FF4F7
:1029C0000071FDF7E9FF204620210022FDF7E4FF1A
:1029D0000A20FDF7B9FE204620210122FDF7DCFF89
:1029E00005F0010220464021FDF7D6FFC5F3400265
:1029F00020468021FDF7D0FFC5F3800220464FF42A
:102A00008071FDF7C9FFC5F3C00220464FF4007185
:102A1000FDF7C2FF204620210022FDF7BDFF0A205E
:102A2000FDF792FE17F8015F002DA3D140F20C00D4
:102A3000C2F200000068FDF787FE48464FF40041EF
:102A40000022FDF7A9FF484620210022FDF7A4FF40
:102A5000484640210022FDF79FFF48464FF40061A1
:102A60000122FDF799FF48464FF480510122FDF7FE
:102A700093FFF4E56D6F3A6E676179206B68756D51
:102A8000206D75612020202020202000646F6E675B
:102A90003A20546F69202020202020202020202050
:102AA000202020202020200063686520646F3A7475
:102AB000687520636F6E67202020202020000000B2
:102AC0006D6F20202020202020202020202020206A
:102AD000202020202020000002E008C8121F08C18A
:102AE000002AFAD170477047002001E001C1121F8F
:102AF000002AFBD170470102000000000000000026
:102B00000102030406070809020304050607080971
:102B10000A0B0C0D0E0F101063686520646F3A7479
:102B20007520646F6E672020202020202020202028
:102B30002020202020202020202020202020202095
:102B40002020202020202020202020202020202085
:102B50002020202020202020202020202020202075
:102B60002020202020202020202020202020202065
:102B70002020202020202020202020202020202055
:102B80002020202020202020202020202020202045
:102B90002020202020202020202020202020202035
:102BA0002020202020202020202020202020202025
:102BB0002020202020202020202020202020202015
:102BC0002020202020202020202020202020202005
:102BD00020202020202020202020202020202020F5
:102BE00020202020202020202020202020202020E5
:102BF00020202020202020202020202020202020D5
:102C000020202020202020202020202020202020C4
:102C100020202020202020202020202020202020B4
:102C200020202020202020202020202020202020A4
:102C30002020202020202020202020202020202094
:102C40002020202020202020202020202020202084
:102C50002020202020202020202020202020202074
:102C60002020202020202020202020202020202064
:102C70002020202020202020202020202020202054
:102C80002020202020202020202020202020202044
:102C90002020202020202020202020202020202034
:102CA000200000006D6F20202020202020202020E8
:102CB0002020202020202020202020200000000094
:102CC000646F6E67202020202020202020202020DC
:102CD0002020202020202000646F6E6720202020EC
:102CE0002020202020202020202020202020000024
:102CF00074687563206869656E20646F6E672D2D3A
:102D00002D2D2D2D2D2D2D0074687563206869657E
:102D10006E206D6F2D2D2D2D2D2D2D2D2D000000B4
:102D2000402D00080000002010000000D82A0008F4
:102D3000502D000810000020C0040000E82A000800
:102D400001000000100000000024F400E80300006F
:04000005080000ED02
:00000001FF
