:020000040800F2
:10000000F807002089010008492100080D1D00089B
:1000100045210008BD03000875210008000000000C
:100020000000000000000000000000005121000856
:10003000CD030008000000004D21000855210008F4
:10004000A3010008A3010008A3010008A301000800
:10005000A3010008A3010008A3010008A3010008F0
:10006000A3010008A3010008A3010008C1030008C0
:10007000A3010008A3010008A3010008A3010008D0
:10008000A3010008A3010008A3010008A3010008C0
:10009000A3010008A3010008A3010008A3010008B0
:1000A000A30100085D210008A3010008A3010008C6
:1000B00069210008A3010008A3010008A3010008AA
:1000C000A3010008A3010008A3010008A301000880
:1000D000A3010008A3010008A3010008A301000870
:1000E000A3010008A3010008A301000800F002F822
:1000F00000F03AF80AA090E8000C82448344AAF188
:100100000107DA4501D100F02FF8AFF2090EBAE885
:100110000F0013F0010F18BFFB1A43F0010318473B
:10012000442C0000642C0000103A24BF78C878C129
:10013000FAD8520724BF30C830C144BF04680C60ED
:10014000704700000023002400250026103A28BF35
:1001500078C1FBD8520728BF30C148BF0B60704739
:100160001FB51FBD10B510BD00F058F81146FFF7C0
:10017000F7FF02F011F900F076F803B4FFF7F2FF91
:1001800003BC00F07DF8000009488047094800479B
:10019000FEE7FEE7FEE7FEE7FEE7FEE7FEE7FEE737
:1001A000FEE7FEE704480549054A064B7047000094
:1001B00059210008ED000008F8010020F807002090
:1001C000F8030020F80300204FF0000200B51346AA
:1001D00094469646203922BFA0E80C50A0E80C5067
:1001E000B1F12001BFF4F7AF090728BFA0E80C5018
:1001F00048BF0CC05DF804EB890028BF40F8042B11
:1002000008BF704748BF20F8022B11F0804F18BF7D
:1002100000F8012B7047704770477047754600F033
:100220002BF8AE4605006946534620F00700854688
:1002300018B020B5FFF7B6FFBDE820404FF000062C
:100240004FF000074FF000084FF0000BAC46ACE851
:10025000C009ACE8C009ACE8C009ACE8C00921F0AD
:1002600007018D46704710B50446AFF30080204665
:10027000BDE81040FFF781BF004870471000002024
:1002800001491820ABBEFEE72600020070470000BF
:100290000146406A826A12F0500F03D0006A026B76
:1002A000084610470168826A42F4007282628968D7
:1002B00001F46021B1F5602F01D1017B11B100F093
:1002C00053B900BF816A21F480718162816AC904D7
:1002D00048BF00F049B9816A41F00101816200F034
:1002E00043B90000406A816A41F040018162C16AFD
:1002F00041F00401C16200F03BB90000406A00F027
:1003000035B90000B0B582B00446002001902168E4
:100310008A68D2074FD1886840F00100886040F2B7
:100320000800C2F2000000684DF68361C4F21B3180
:10033000A0FB0101880C01900198A0B1019801383F
:100340000190019878B1019801380190019850B15D
:10035000019801380190019828B101980138019065
:1003600001980028EAD100F00BFE21688968C907CE
:100370001CD1054603E000BF8068C0071AD100F019
:10038000FFFD411B20680329F6D38168C907F3D11B
:10039000A06A40F01000A062E06A40F00100E06254
:1003A000002084F82400012002B0B0BD002002B07B
:1003B000B0BD00BF002002B0B0BD0000FEE70000ED
:1003C00040F2C800C2F2000000F04ABB70470000D3
:1003D000EFF3108072B600BFFEE7000010B581B0E9
:1003E0000022009290F82420012A03D1022108461D
:1003F00001B010BD4B680122062B80F8242017D8CD
:10040000D0F800C003EB83035A1F1F23DCF834E04D
:1004100003FA02F40B682EEA040403FA02F2224300
:10042000CCF83420092B03EB430219D936E000BF86
:10043000D0F800C00C2B03EB83021DD8233A1F23F6
:10044000DCF830E003FA02F40B682EEA040403FA45
:1004500002F22243CCF83020092B03EB43021DD8D3
:10046000DCF81030072489689440A3439140194375
:10047000CCF81010002130E0413A1F23DCF82CE0CA
:1004800003FA02F40B682EEA040403FA02F2224390
:10049000CCF82C20092B03EB4302E1D9DCF80CE06B
:1004A0001E3A0724896894402EEA0404914023F000
:1004B00001022143102ACCF80C100DD142F2084160
:1004C000C4F20101A1F1080294450DD0816A41F006
:1004D00020018162012100E00021002280F8242017
:1004E000084601B010BD00BF0A68120230D40A6885
:1004F000102B42F400020A602CD140F20801C2F233
:10050000000109684DF68362C4F21B32A1FB02129E
:10051000910C01EB8101490000910099E1B1009932
:10052000013900910099C9B10099013900910099F0
:10053000B1B1009901390091009999B1009901393F
:100540000091009900294FF00001E8D1C5E700BFF4
:100550000021C2E70021C0E70021BEE70021BCE77F
:100560000021BAE70021B8E770470000704700009B
:1005700070470000B0B5002800F0A8800446806AEB
:1005800020B121688868C0070BD114E00020E06228
:1005900084F82400204600F09BF821688868C00792
:1005A00009D0886820F00100886000F0E9FC21682B
:1005B0008A68D20726D1A06AC0063AD4A06A41F25E
:1005C000021290430230A062E069D4E9013240EAAD
:1005D000030C531EB3FA83F35D091346B2F5807F13
:1005E00018BF2B02207D257B01284CEA450030D125
:1005F00035B3A56A45F02005A562E56A45F0010519
:10060000E56226E0054602E08868C007D3D000F026
:10061000B7FC401B21680328F6D38868C007F3D0D5
:10062000A06A40F01000A062E06A40F00100E062C1
:10063000A06AA06A40F01000A0620120B0BD00BF17
:10064000D4F818C04EF60005CFF6FF7505EB4C3513
:100650002B434D68B2F5807F25F4694543EA0503D5
:100660004B608B684FF2FD75CFF6E17503EA050329
:1006700043EA00038B6001D0012A07D122690023DD
:10068000CFF6F07303EB025201E000BF0022CB6A09
:1006900023F470031A43CA62896840F6FE62CFF6FB
:1006A0001F721140814207D10020E062A16A01223D
:1006B00062F30101A162B0BDA06A40F0100020F019
:1006C0000200A062E06A40F00100E0620120B0BDDB
:1006D00070B586B0044640F60000C4F201002168FF
:1006E00000F5E052002691420596049602D006B02D
:1006F00070BD00BF41F21801C4F202010A6842F461
:1007000000720A600A6802F400720192019A0A6893
:1007100042F004020A60096801F0040101910199A4
:10072000062102910321039102A900F00FFB40F280
:10073000C8050820C2F20005C4F202004FF480721E
:10074000C5E9000605F1100080214FF480634FF0E9
:10075000200C80E80C102846C5E90261EE6100F02B
:100760004FFA002818BFFFF733FE25626C6206B00F
:1007700070BD000070B515460446006842F60002E0
:10078000C4F2010290420E4605D042F20041C4F28A
:100790000101884209D142F20440C4F2010000681C
:1007A00010F4702F1CBF012070BD94F824000128A4
:1007B00004BF022070BD012084F824002046FFF70A
:1007C000A1FD18B1002184F8241070BD42F204404C
:1007D0002168A26AC4F2010040F601739A4300F551
:1007E0007F7302F580729942A26243D0A06A20F41E
:1007F0008010A0624868400504D5A06A012262F317
:100800000D30A062A26A0020D2044FF0000244BF63
:10081000E26A22F00602E26284F82400206A40F2D2
:100820009122C0F6000240F2FD2340F2E52C00F1D7
:10083000280EC0F60003C0F6000C8EE80C106FF016
:1008400002020A608A682B4642F480728A604C3148
:10085000324600F019FA2068816801F4602281684C
:10086000B2F5602F0CBF41F4A00141F4801181600A
:10087000002070BD026812F4702FB7D0A26A42F453
:100880008012A26200684005BCD5B6E710B50446E8
:1008900090F82400012804BF022010BD012084F834
:1008A00024002046FFF72EFD20B1002184F82410FB
:1008B00010BD00BF42F2044C2068A16AC4F2010CD2
:1008C00040F6017291430CF57F7201F58071904200
:1008D000A16237D0A16A21F48011A1624168490563
:1008E00004D5A16A012363F30D31A162A16A00233B
:1008F000C9044FF0000144BFE16A21F00601E16242
:100900006FF0020184F824300160416841F0200159
:100910004160816801F46021B1F5602F06D19042F9
:100920000AD1DCF8001011F4702F05D0816841F471
:1009300080118160002010BD816841F4A0018160B8
:10094000002010BDDCF8001011F4702FC2D0A16A95
:1009500041F48011A162DCF800104905C1D4C5E75B
:10096000B0B5044690F82400012804BF0220B0BDB1
:100970000120216884F824008868C00709D08868AD
:1009800020F00100886000F0FBFA21688A68D20735
:100990001AD1886820F480708860206A90F821104D
:1009A00002290BD100F038F8A16A48B341F04001A8
:1009B000A162002184F82410B0BD00BF00200021F6
:1009C00084F82410B0BD00BF054602E08868C00767
:1009D000DFD000F0D5FA401B21680328F6D38868E1
:1009E000C007F3D0A06A40F01000A062E06A40F0B7
:1009F0000100E0620120002184F82410B0BD00BF96
:100A000041F2011021EA00000130A0620020002123
:100A100084F82410B0BD0000014690F8210002289F
:100A200016D10868D1E90FC3026822F00E020260F5
:100A3000026822F001020260012000FA03F2CCF801
:100A4000042081F821000020002281F82020704736
:100A5000042088630120002281F8202070470000D4
:100A600010B5D0E90FCE0168DCF800300A6823FA2F
:100A70000EF35C072AD512F0040427D00A68920608
:100A800003D40A6822F004020A602F22C4F2020290
:100A9000914240F20402C4F202025BDD3023C4F250
:100AA0000203994272D04423C4F20203994273D0E4
:100AB0005823C4F20203994240F07A804FF4802315
:100AC0001360C16A002940F098806FE09C0727D529
:100AD00012F0020424D00A68920606D40A6822F0B2
:100AE0000A020A60012280F821202F22C4F20202A9
:100AF000914240F20402C4F202023BDD3023C4F210
:100B00000203994260D04423C4F2020399425FD0A9
:100B10005823C4F20203994260D14FF4003365E0D8
:100B20001B0743D512F0080208BF10BD0A6822F067
:100B30000E020A60012101FA0EF2CCF80420816352
:100B400080F82110016B0022002980F8202054D168
:100B50002CE000BF0823C4F20203994222D01C23D8
:100B6000C4F20203994223D140231360C16A0029D1
:100B700043D11BE00823C4F2020399422CD01C236A
:100B8000C4F20203994229D120232FE04FF480635D
:100B90001360C16A89BB09E04FF480431360C16AE6
:100BA00059BB03E004231360C16A31BB10BD00BF11
:100BB00002F168044FF08063A14208BF4FF4800344
:100BC0001360C16AC9B9F1E74FF400730EE000BFCA
:100BD0004FF400530AE000BF022307E002F168046B
:100BE0004FF00073A14208BF4FF400131360816AF5
:100BF0000022002980F82020D8D0BDE81040084706
:100C0000014600284FF0010008BF70472DE9F0436E
:100C1000D1F800C04FF6F873CBF6FD734CF6CD4219
:100C20006344CCF6CC42A3FB02236FF0030707EA30
:100C300093030027C4F2020701F10C09C1E90F7305
:100C40000223D1E9012E99E87002D1F81C8081F8C5
:100C50002130DCF8003043F6F077BB431A4342EA18
:100C60000E0222432A43324342EA090242EA0802C0
:100C7000CCF8002000228A6381F8210081F820202E
:100C80000020BDE8F0437047F0B590F820C0BCF1FB
:100C9000010F32D04FF0010E80F820E090F821C013
:100CA000BCF1010F26D14FF0020C80F821C04FF0AB
:100CB000000CC0F838C0D0E900C4C56AC66BDCF8C7
:100CC0000070102C27F00107CCF80070006C0EFAB1
:100CD00000F070600846CCF8043004BF10460A46A5
:100CE000CCF80800CCF80C20DCF8000045B140F04E
:100CF0000E000DE0002180F820100220F0BD00BFA2
:100D000020F00400CCF80000DCF8000040F00A00FD
:100D1000CCF80000DCF8000040F00100CCF8000046
:100D20000020F0BDB0B5044600F02AF9054640F2B7
:100D30000000C2F200000078611C18BF044400BF2C
:100D400000F01EF9401BA042FAD3B0BD2DE9F04FD0
:100D500082B00E68002E00F0038141F20042C4F21E
:100D60000102042340F2004E904208BF03234FF6D5
:100D7000FF7CC4F2010E009300240123C1F2100C89
:100D80004FF0000A4FF0000949E000BF012704F0CE
:100D90000C030F229A402BEA020207FA03F34FEAF0
:100DA0009A051A4346F82520D1F804B040F20C45C4
:100DB0005FEACB22DEF8082054BF22EA080242EAAA
:100DC0000802C4F20105CEF808202A685FEA8B23E6
:100DD00054BF22EA080242EA08022A605FEA8B3323
:100DE000DEF8042054BF22EA080242EA08025FEA61
:100DF000CB33CEF80420DEF800204FF0010354BFBF
:100E000022EA080242EA0802CEF800200E680AF13F
:100E1000010A36FA0AF204F1040400F0A18003FA90
:100E20000AF816EA080FF1D04E68664512DC122E59
:100E300056D8DFE806F0350B4549555555555555FB
:100E4000555555555555554D510000BFD1F80C908D
:100E500046E000BF4FF6FF72C1F2210296420FDC5E
:100E60000022C1F2110296421AD00022C1F21202EF
:100E7000964215D00022C1F22102964210D02FE0F6
:100E80000022C1F2220296420AD00022C1F23102AF
:100E9000964205D00022C1F23202964220D100BF14
:100EA0008A684AB1012A14BFC0F81480C0F81080C3
:100EB0004FF0080914E000BF4FF0040910E000BF34
:100EC000CA6802F108090BE04FF0000908E000BF12
:100ED000CA6802F1040903E0CA6802F10C0900BF04
:100EE00022460646BAF1080F24BF203A0436376876
:100EF0000F25954027EA050509FA02F22A433260D8
:100F0000CA79D2067FF582AF41F21803C4F2020318
:100F10001A68AEF57E7642F001021A601A6802F095
:100F200001020192019A2AF0030256F802B040F63B
:100F30000002C4F20102904210D040F60042C4F216
:100F4000010290423FF422AF41F20002C4F20102DA
:100F5000009F904208BF022719E700BF002716E74D
:100F600002B0BDE8F08F00008068084018BF012083
:100F700070470000002A08BF0904016170470000A3
:100F800040F2F010C2F200000068704770B5B8B3CC
:100F9000044690F83D0028B9002084F83C00204623
:100FA00000F09AF9242084F83D002068016821F0BF
:100FB00001010160016841F400410160016821F410
:100FC0000041016000F0D8FB48F28041C0F21E01F0
:100FD00040F60013D4F804E088424FF00001C0F25C
:100FE0003D0348F2A16C4FF0000238BF0121984246
:100FF000C0F2010C38BF0122E64538BF0A460AB1EB
:10100000012070BD4DF68361C4F21B31A0FB0112BB
:101010002168950C4B684FF4967623F03F0343EA22
:101020009243754344F6D3564B60C1F262060B6A95
:10103000A5FB0656B50923F03F03E64538BF950CDE
:101040006A1C1A430A62CA6948F2A0664CF6FF732A
:10105000C0F20106B64522EA03020BD801384FEA76
:101060004E03B0FBF3F001306FF31F30042898BF3C
:1010700004201EE0A368013863B119230EFB03F3BB
:10108000B0FBF3F001306FF31F3078B100F5804012
:1010900008E000BF0EEB4E03B0FBF3F001306FF33E
:1010A0001F3028B100F5004003E000BF012000E040
:1010B00001201043C8610868D4E9072320F0C0006C
:1010C000104318430860886848F2FF3204F10C06A8
:1010D00090434CCE18431043A5698860C86820F03F
:1010E000FF0030432843C860086840F001000860F2
:1010F00000202021206484F83D10206384F83E0005
:1011000070BD00002DE9F04383B01E4617468946A6
:101110000446FFF735FF94F83D10202920D10546FD
:10112000206800BF8169890716D5FFF729FF411B99
:1011300020681A29F6D381698907F3D50020202178
:10114000206384F83D1084F83E00216C41F02001BA
:10115000216484F83C0003E094F83C10012903D199
:10116000022003B0BDE8F083012184F83C1001683F
:10117000C90703D1016841F001010160016840F233
:10118000020821F400610160212184F83D10102142
:1011900084F83E100021216467626685618DC0F28B
:1011A00001082185A8F10211E162E16A0A9E11F5A8
:1011B000803F18BF01291DD1016841F48071016091
:1011C00020464FF0011100223346009500F000FE4A
:1011D00050B120680068C00544BF4FF4007020641F
:1011E000012003B0BDE8F0832069B0F5804F07D13E
:1011F000FE2015E00829DFD0216B1229DCD0DFE7C3
:10120000062000EAD9102168F030086108F10601D3
:10121000204632462B4600F0C5FE0028E0D1FF20D4
:10122000216800EA090008612046414632462B4603
:1012300000F0B8FE0028D3D1002002902068416958
:10124000029180690290029806E000BF2046314674
:101250002A4600F05DFD18BB208D68B3204631465C
:101260002A4600F00FFFD8B9606A2168024612F8DA
:10127000013B0B616262628D013A6285228D531ED1
:1012800023854F697F07E1D51B04DFD04378023007
:101290000B616062608D01386085901E2085D5E706
:1012A000206C04289CD12068016841F40071016021
:1012B000012003B0BDE8F0832068016841F40071AB
:1012C0000160202084F83D00002084F83E0084F86E
:1012D0003C0003B0BDE8F08310B586B045F2004194
:1012E0000068C4F2000100228842049202D006B0D5
:1012F00010BD00BF41F21804C4F20204206840F09F
:1013000008002060206800F0080001900198C020CB
:101310000290122003900320059001F5384002A9A5
:10132000FFF714FD606840F400106060606800F42E
:1013300000100190019806B010BD000040F20000BE
:1013400040F2F011C2F20000C2F2000100780A6817
:10135000104408607047000080B542F20000C4F2FB
:101360000200016841F010010160032000F08EF8D6
:101370000F2000F005F800F027F8002080BD0000E5
:1013800070B540F20006C2F2000640F20801327861
:10139000C2F200014FF47A730968B3FBF2F204461B
:1013A000B1FBF2F1084600F0D5FB0F2C4FF0010520
:1013B00008D838B94FF0FF3021460022002500F050
:1013C00039F87460284670BD82B041F21800C4F24A
:1013D00002000168022241F001010160016801F090
:1013E000010101910199416841F0805141604068DB
:1013F00000F08050009000980420C4F201000168C1
:1014000062F31A61016002B070470000002848BF13
:101410007047C1B200F01F00012202FA00F04EF244
:101420000012CEF2000242EAD10121F0030108606D
:101430007047000010B54EF60C5CCEF2000CDCF8E4
:101440000030C3F3022E8EF00704042C28BF0424BE
:10145000BEF103034FF0FF3E0EFA04F438BF002341
:10146000A14399400EFA03F39A43114300F00F028F
:1014700000F160430901043A03F564436244002823
:1014800048BF02F10C03197010BD00004EF60C515C
:10149000CEF200010A684FF6FF031A4060F30A22F9
:1014A00042F0806040F0FD70086070472DE9F04127
:1014B00082B00446007841F21C06C007C4F202065E
:1014C0004AD0306810F0805808D1306840F0805021
:1014D0003060306800F080500190019847F20007BA
:1014E000C4F200073868C00512D4386840F4807030
:1014F0003860FFF745FD05463868C00508D4FFF79A
:101500003FFD401B6428F7D9032002B0BDE8F081FD
:10151000706810F4407012D0616801F44071884224
:101520000DD0706840F24042C4F24222012320F400
:10153000407113600023C007136071602AD1706886
:10154000616820F440700843B8F1000F706003D167
:10155000306820F0805030602068810707D556F849
:10156000181CA26821F44041114346F8181CC0061B
:1015700004D4002002B0BDE8F08100BF56F8180C7A
:10158000E16820F48000084346F8180C002002B0FF
:10159000BDE8F081FFF7F4FC054641F2883700BF53
:1015A00070688007CBD4FFF7EBFC401BB8424FF0CC
:1015B0000300F5D9EBE700002DE9F04381B00028E6
:1015C00000F0858042F20008C4F202080446D8F810
:1015D00000000D4600F0070088420CD2D8F8000049
:1015E00020F007002843C8F80000D8F8000000F0F9
:1015F0000700A8426BD1206841F204098107C4F2B8
:10160000020917D5410705D5D9F8001041F4E0616A
:10161000C9F80010010705D5D9F8001041F4605150
:10162000C9F80010D9F80010A26821F0F0011143A8
:10163000C9F80010C00741D1D8F8000000F0070039
:10164000A8420CD9D8F8000020F007002843C8F8B9
:101650000000D8F8000000F00700A84237D1206849
:10166000410707D5D9F80010E26821F4E061114381
:10167000C9F80010000708D5D9F80000216920F446
:10168000605040EAC100C9F80000D9F8002002F01B
:101690000C00082841F20020C0F27A0050D142F636
:1016A0003E53C2F38341C0F60003595CD2033BD4DE
:1016B00040F60010C0F23D00484341E06068022857
:1016C0000AD001282AD159F8041C890308D4012022
:1016D00001B0BDE8F08300BF59F8041C8901F6D5BC
:1016E000D9F8001021F003010843C9F80000FFF702
:1016F00047FC064641F28837D9F80000616800F0DF
:101700000C00B0EB810F97D0FFF73AFC801BB8427A
:10171000F2D9032001B0BDE8F08300BF59F8041CE2
:101720008907D4D5DCE700BFD9F8002042F63C5346
:10173000C2F34042C0F600039A5C4843B0FBF2F0AB
:10174000D9F8001042F62452C1F30311C0F600028A
:10175000515C40F2080220FA01F140F20400C2F2AA
:1017600000000068C2F200021160FFF709FE0020CD
:1017700001B0BDE8F083000040F2080041F204012E
:10178000C2F20000C4F202010068096842F6345255
:10179000C1F30221C0F60002515CC840704700004E
:1017A0002DE9F04182B0002868D00446007841F26B
:1017B0000006C007C4F2020625D0706800F00C00D5
:1017C00004281BD0706800F00C00082802D1706853
:1017D000C00313D46068002800F06881B0F5A02F22
:1017E00000F07C81B0F5803F00F07C81306820F40F
:1017F00080303060306820F4802076E130688003EB
:1018000001D56068D0B32078800718D5706810F0D3
:101810000C0F07D0706800F00C0008286ED17068BB
:10182000C0036BD43068800702D52069012825D118
:101830003068616920F0F80040EAC100306020782B
:1018400000071FD42078400732D4E56995B170684D
:1018500000F00C00082840F08F80012D0ED0706839
:10186000216A00F480328A4208D1616A00F4701063
:10187000884203D1002002B0BDE8F081012002B00F
:10188000BDE8F081A069002862D00020C4F24220A7
:101890000121C0F88014FFF773FB0546706A8007CA
:1018A00000F18C80FFF76CFB401B0228F6D92AE17F
:1018B000F06910F0805808D1F06940F08050F06174
:1018C000F06900F080500090009847F20007C4F2E1
:1018D00000073868C00529D4386840F48070386043
:1018E000FFF74EFB054600BF3868C0051ED4FFF762
:1018F00047FB401B6428F7D905E100BF2069002899
:1019000040F20000C4F2422000F082800121016018
:10191000FFF736FB054600BF306880073FF588AF0C
:10192000FFF72EFB401B0228F6D9ECE0E068002808
:1019300000F08080052800F09780012800F0988052
:10194000306A20F001003062306A20F0040092E03A
:101950000020C4F242200021C0F88014FFF710FBE1
:10196000054600BF706A80077FF56CAFFFF708FB84
:10197000401B0228F6D9C6E00027C4F24227002007
:101980003866FFF7FDFA022D05460BD1306880015D
:1019900040F1BE80FFF7F4FA401B02284FF003002D
:1019A000F4D968E7306880017FF564AFFFF7E8FAA3
:1019B000401B02284FF00300F4D95CE740F2080016
:1019C000C2F20000006844F6D351C1F26201A0FBEC
:1019D0000101480A019000BF00BF0198411E002884
:1019E00001913FF42FAF00BF0198411E00280191E3
:1019F0003FF428AF00BF0198411E002801913FF439
:101A000021AF00BF0198411E00280191E4D119E7E0
:101A100000210160FFF7B4FA054600BF3068800777
:101A20007FF50DAFFFF7ACFA401B02284FF0030023
:101A3000F4D920E7306A20F001003062306A20F0EB
:101A400004003062FFF79CFA054641F2883700BF78
:101A5000306A800720D5FFF793FA401BB8424FF059
:101A60000300F5D907E700BF306A40F00400306298
:101A7000306A40F001003062FFF782FA054641F219
:101A8000883700BF306A800706D4FFF779FA401B19
:101A9000B842F7D937E000BFB8F1000F7FF4D5AEF8
:101AA000F06920F08050F061CFE600BF306820F48C
:101AB00080303060306820F480203060FFF760FABA
:101AC000054600BF306880037FF59DAEFFF758FAEA
:101AD000401B64284FF00300F4D9CCE6306840F492
:101AE00080203060306840F480303060FFF748FA82
:101AF000054600BF306880033FF585AEFFF740FA2A
:101B0000401B6428F6D9032002B0BDE8F08100BF75
:101B1000206AB0F5803F05D17168A26821F40031D8
:101B2000114371607168626A21F4741111430843B2
:101B3000706001203866FFF723FA044630688001A0
:101B40003FF598AEFFF71CFA001B02284FF0030088
:101B5000F4D990E6411E0020B0EB116F1CBF0120AC
:101B600070474EF21002CEF2000251604EF6235141
:101B7000CEF20001F0230B700721906011607047D6
:101B800070470000704700007047000010B5016802
:101B900004460869800744BFC8685FEA807039D48A
:101BA0000869400744BFC8685FEA40703ED40869CE
:101BB000000744BFC8685FEA007045D40869C006E2
:101BC00044BFC8685FEAC0604AD40869C0071CBF48
:101BD000C8685FEAC07051D10869000644BFC86890
:101BE0005FEA006052D40869400644BFC8685FEAF3
:101BF000406053D40869800646BFC8685FEA8060C9
:101C000010BD6FF0200220460A61BDE81040FFF7CA
:101C1000B9BF00BF6FF0020008610120207788691A
:101C2000800743D02046FFF7AFFF45E06FF0040088
:101C3000086102202077886910F4407F40D0204658
:101C4000FFF7A2FF42E000BF6FF008000861042028
:101C50002077C86980073DD02046FFF795FF3FE019
:101C60006FF01000086108202077C86910F4407FE9
:101C70003AD02046FFF788FF3CE000BF6FF001003C
:101C80000861204600F03EF82168A5E76FF080006B
:101C900008612046FFF774FF2168A4E76FF0400059
:101CA0000861204600F030F82168A3E7204600F0E4
:101CB00025F8204600F024F82168002020776FE7FF
:101CC000204600F01BF8204600F01AF8216800209A
:101CD00020776CE7204600F011F8204600F010F85D
:101CE00021680020207769E7204600F007F82046A9
:101CF00000F006F821680020207766E770470000B2
:101D0000704700007047000070470000FEE70000C9
:101D100070B50368044653F8140F400711D40E46FB
:101D2000481C29D086BB00BF1868400527D4FFF7A0
:101D300027F9236853F8140F400739D5186840076E
:101D4000F2D5002070BD00BF18684007F9D41868AC
:101D5000400514D418684007F3D4186840050ED421
:101D600018684007EDD41868400508D41868400783
:101D70004FF0000048BF70BD18684005E4D56FF40F
:101D800080601860042014E0154603E053F8140F37
:101D90004007D6D418684005F1D4FFF7F1F8401B8E
:101DA0002368B042F2D958694007EFD4202000E000
:101DB000202000212022216384F83D2084F83E1059
:101DC000226C10432064012084F83C1070BD000098
:101DD0002DE9F041054600681E46144601F47F02D5
:101DE00001338FB242D0DDF81880B2F5803F40F069
:101DF000878040693840C01BB0FA80F04009A0429B
:101E000040F0C8804EB924E040693840C01BB0FAA9
:101E100080F04009A04240F0BD80FFF7B1F8A0EB90
:101E200008012868B142EFD941693940C91BB1FAAC
:101E300081F14909A142E7D19BE000BF40693840E8
:101E4000C01BB0FA80F04009A0424FF0000040F003
:101E5000A680FFF795F8286841693940C91BB1FA97
:101E600081F14909A142E9D183E000BFB2F5803F89
:101E700024D100BF41693940C91BB1FA81F1490938
:101E8000A14240F0878041693940C91BB1FA81F114
:101E90004909A14240F07E8041693940C91BB1FA2D
:101EA00081F14909A14275D141693940C91BB1FA93
:101EB00081F14909A142DDD06CE000BF8169394060
:101EC000C91BB1FA81F14909A14263D18169394045
:101ED000C91BB1FA81F14909A1425BD1816939403D
:101EE000C91BB1FA81F14909A14253D18169394035
:101EF000C91BB1FA81F14909A142DFD04AE000BF14
:101F000080693840C01BB0FA80F04009A04241D13E
:101F100046B923E080693840C01BB0FA80F0400920
:101F2000A0423BD1FFF72CF8A0EB08012868B14292
:101F3000F0D981693940C91BB1FA81F14909A1423F
:101F4000E8D116E080693840C01BB0FA80F0400943
:101F5000A0424FF0000018BFBDE8F081FFF710F875
:101F6000286881693940C91BB1FA81F14909A14248
:101F7000E8D100202021286385F83D1085F83E0037
:101F8000296C41F02001296485F83C000120BDE85E
:101F9000F08100BF0020BDE8F08100BF0020BDE857
:101FA000F0810000F0B581B0044600681D46436929
:101FB0008FB203EA0701B94202D1002001B0F0BD9F
:101FC00041691646013201F4806125D0002940D1D3
:101FD000CEB100BFFEF7D4FF411B2068B14203D948
:101FE00041693940B9424BD141693940B942E4D0E5
:101FF00041694905EED52CE041693940B942DCD050
:102000004169490525D4FEF7BBFF20684169394085
:10201000B942F1D0202024E0D9B941693940B94210
:10202000CBD04169490514D441693940B942C4D083
:10203000416949050DD441693940B942BDD0416972
:10204000490506D441693940B942B6D041694905CC
:10205000E3D5016841F4007101606FF48061416172
:10206000042000212022216384F83D2084F83E10C2
:10207000226C1043206484F83C10012001B0F0BDB4
:102080002020EEE770B50368044653F8140F0006ED
:1020900011D40E46481C29D086BB00BF18684005E5
:1020A00027D4FEF76DFF236853F8140F000639D5C7
:1020B00018680006F2D5002070BD00BF1868000641
:1020C000F9D41868400514D418680006F3D41868C9
:1020D00040050ED418680006EDD41868400508D4F1
:1020E000186800064FF0000048BF70BD1868400532
:1020F000E4D56FF480601860042014E0154603E016
:1021000053F8140F0006D6D418684005F1D4FEF732
:1021100037FF401B2368B042F2D958690006EFD45C
:10212000202000E0202000212022216384F83D208F
:1021300084F83E10226C10432064012084F83C1087
:1021400070BD0000FEE70000FEE7000070470000E1
:1021500070470000FFF7F2B87047000040F26010CF
:10216000C2F20000FFF712BD40F2A810C2F2000058
:10217000FFF70CBDFEE700002DE9F04184B048F602
:102180008C0040F20C14C0F60C00C2F20004029065
:102190004FF0640802AA20464E210423CDF80080A7
:1021A000FEF7B0FF42F62D164627C0F60D1603AD1A
:1021B00020464E212A4604230396CDF80080FEF7E0
:1021C000A1FF013FF4D104B0BDE8F08180B582B039
:1021D00001F1400363F07F036FF07F02012808BF25
:1021E00081EA020323F00F00190100F10C0208300C
:1021F0008DF8050001F10C008DF8060001F10800D2
:102200008DF8070040F20C108DF804204FF0640C9C
:10221000C2F2000001AA4E210423CDF800C0FEF74F
:1022200071FF02B080BD000070B582B03220FEF7B1
:1022300079FD40F20C1443F63C06C2F20004C0F6ED
:102240000C06642501AA20464E2104230196009520
:10225000FEF758FF0520FEF765FD01AA20464E2136
:10226000042301960095FEF74DFF0120FEF75AFD6D
:1022700001AA20464E21042301960095FEF742FF55
:102280000A20FEF74FFD42F62C00C0F60C0001902C
:1022900001AA20464E2104230095FEF733FF0A20B1
:1022A000FEF740FD42F62C00C8F68C00019001AA12
:1022B00020464E2104230095FEF724FF0120FEF75F
:1022C00031FD40F60C00C8F68C00019001AA2046B2
:1022D0004E2104230095FEF715FF0120FEF722FD95
:1022E00040F60C00C1F61C00019001AA20464E21C8
:1022F00004230095FEF706FF0120FEF713FD0120E1
:10230000FEF710FD40F60C00C6F66C00019001AA25
:1023100020464E2104230095FEF7F4FE0120FEF72F
:1023200001FD40F60C00CCF6CC00019001AA20463D
:102330004E2104230095FEF7E5FE02B070BD0000BB
:10234000F0B583B0017821B340F20C14461E642727
:10235000C2F2000402AD00BF21F00F00090100F13C
:102360000D0209308DF8090001F10D008DF80A0009
:1023700001F109008DF808208DF80B0020464E2150
:102380002A4604230097FEF7BDFEB17801360029E6
:10239000E2D103B0F0BD000094B0FEF7DDFF0AAC5F
:1023A000201D2421FDF710FF02200A9001200E902D
:1023B000102000250F9020460495CDE90255119577
:1023C000FFF7EEF920B1EFF3108072B6FEE700BF21
:1023D0000F20CDE9050505A80021CDE90755099590
:1023E000FFF7EAF820B1EFF3108072B6FEE700BF06
:1023F0004FF00209002501A8CDF804900395FFF7DE
:1024000055F828B1EFF3108072B600BFFEE700BFA9
:1024100041F21807C4F20207386840F6000440F0A1
:10242000100038603868C4F2010400F010000A900F
:102430000A98386804F5006640F00400386038688F
:102440004FF4005100F004000A900A983868002206
:1024500040F00800386038684FF4005A00F0080077
:102460000A900A983046FEF785FD204649F660310D
:102470000022FEF77FFD04F5806840464FF44E7160
:102480000022FEF777FDCDF828A00DF1280A4FF0C5
:10249000010B30465146CDE90BB5CDF83490FEF72F
:1024A00055FC1820CDE90A05204651460C95FEF74B
:1024B0004DFC49F66030CDE90A0B20465146CDE986
:1024C0000C59FEF743FC4FF44E70CDE90A0B404621
:1024D0005146CDE90C59FEF739FC57F8040C0021A0
:1024E00040F0010047F8040C57F8040C002200F0FB
:1024F00001000A900A980B20FEF79CFF0B20FEF7C4
:1025000085FF40F20C10A4F53441C2F2000048F2FD
:10251000A0624FF48043C0F2010280E82600C0E9C7
:102520000353C0E90555C0E90755FEF72FFD28B153
:10253000EFF3108072B600BFFEE700BF40F27008F4
:10254000C2F2000804F5E051404640F8281F4FF45D
:10255000807100254FF46022C0E90151022105730A
:102560000575C2610161FEF705F828B1EFF310802F
:1025700072B600BFFEE700BF01200C9508F12805E8
:10258000CDE90A000AA92846FDF728FF20B1EFF39C
:10259000108072B6FEE700BF0220CDE90A000AA94A
:1025A0002846FDF71BFF28B1EFF3108072B600BF7D
:1025B000FEE700BF40F201094FF47A70C8F200094B
:1025C000FEF7B0FBFFF730FEFFF7D6FD012000213C
:1025D000FFF7FCFD0FF2F460FFF7B2FE40F6B830F3
:1025E000FEF7A0FB02200021FFF7F0FD0FF2EC60E8
:1025F000FFF7A6FE40F6B830FEF794FB2846FEF73C
:1026000045F940F20C0B42F64E5708F12406C2F28F
:10261000000BC0F6000740F20E6A07E020462021BA
:10262000FEF7A2FC002800F0378300BF28463146A1
:102630000222FEF79FF80A20FEF774FB2846FEF7F9
:102640008FF9DBF80000D8F8241000EA0902012A0B
:10265000C8F800100ED1204610210122FEF78AFC96
:1026600001200021FFF7B2FD0FF28460FFF768FE42
:10267000DBF80000C00740F0C98120460821012294
:10268000FEF778FCFFF778FD01200021FFF79EFDA3
:102690000FF27060FFF754FE02200021FFF796FD55
:1026A0003846FFF74DFE40F6B830FEF73BFB2046BC
:1026B0004FF480710122FEF75DFC20464FF400715B
:1026C0000022FEF757FCB8F80000504500F28A805F
:1026D000B8F80200B0F5166F00F2848002200C21D9
:1026E000FFF774FD42F65A50C0F60000FFF728FECF
:1026F00020464FF400610122FEF73CFC20464FF4D7
:1027000080510122FEF736FC20462021FEF72CFCEA
:1027100001280FD120464021FEF726FC012809D1CF
:1027200020464FF40041FEF71FFC002804BF0020A4
:10273000C8F8080020462021FEF716FC90B9204674
:102740004021FEF711FC68B920464FF40041FEF726
:102750000BFC38B9D8F80400002804BF0020C8F8E2
:10276000080000BF20462021FEF7FEFB012839D1DA
:1027700020464021FEF7F8FB012833D120464FF4D4
:102780000041FEF7F1FB68BBD8F8080050BB2046BB
:1027900020210022FEF7EEFB204640210122FEF719
:1027A000E9FB20464FF400410122FEF7E3FB4FF422
:1027B0007A70FEF7B7FA20464FF400410022FEF788
:1027C000D9FB204640210022FEF7D4FB20462021E1
:1027D0000022FEF7CFFB0020C8F804000120C8F853
:1027E000080000BFB8F80000504500F28780B8F834
:1027F0000210B1F5166F40F2818002200C21FFF724
:10280000E5FC42F65F50C0F60000FFF799FD204658
:102810004FF400610022FEF7ADFB20464FF48051DB
:102820000022FEF7A7FB20462021FEF79DFBA8BB58
:1028300020464021FEF798FB80BB20464FF4004124
:10284000FEF792FB50BBD8F80C0038BB2046202185
:102850000122FEF78FFB204640210022FEF78AFB73
:1028600020464FF400410122FEF784FB4FF47A70BA
:10287000FEF758FA20464FF400410022FEF77AFB9B
:10288000204640210122FEF775FB2046202101222F
:10289000FEF770FB0120C8F80C0000BF2046202185
:1028A000FEF762FB012813D120464021FEF75CFBB6
:1028B00001280DD120464FF40041FEF755FB38B9F1
:1028C000D8F81000002804BF0020C8F80C0000BF92
:1028D00020462021FEF748FB70B920464021FEF734
:1028E00043FB48B920464FF40041FEF73DFB00286A
:1028F00004BF0020C8F80C00B8F8000040F20F61D7
:102900008842C0F0838002200021FFF75FFC42F67E
:102910005A50C0F60000FFF713FD20464FF4006147
:102920000122FEF727FB20464FF480510122FEF7DB
:1029300021FB20462021FEF717FB01280FD120465E
:102940004021FEF711FB012809D120464FF4004138
:10295000FEF70AFB002804BF0020C8F8200020462C
:102960002021FEF701FB88B920464021FEF7FCFA42
:1029700060B920464FF40041FEF7F6FA30B9D8F8B6
:102980001C00002804BF0020C8F820002046202199
:10299000FEF7EAFA012839D120464021FEF7E4FA91
:1029A000012833D120464FF40041FEF7DDFA68BB21
:1029B000D8F8200050BB204620210022FEF7DAFA8A
:1029C000204640210122FEF7D5FA20464FF400416F
:1029D0000122FEF7CFFA4FF47A70FEF7A3F92046F2
:1029E0004FF400410022FEF7C5FA204640210022A4
:1029F000FEF7C0FA204620210022FEF7BBFA002095
:102A0000C8F81C000120C8F8200000BFDBF8000057
:102A100000EA090001287FF409AEBEA0FFF790FC90
:102A200002200021FFF7D2FB3846FFF789FC40F671
:102A3000B830FEF777F920462021FEF795FA0128F5
:102A400016D120464021FEF78FFA012810D12046EA
:102A50004FF40041FEF788FA50B902200C21FFF72D
:102A6000B5FB42F65F50C0F60000FFF769FC00BFFF
:102A700020462021FEF778FAA0B920464021FEF733
:102A800073FA78B920464FF40041FEF76DFA48B961
:102A900002200C21FFF79AFB42F65A50C0F60000C4
:102AA000FFF74EFC20464FF480710022FEF762FAD9
:102AB00020464FF400710122FEF75CFA20461021F7
:102AC000FEF752FA00287FF4B1ADD8E905100130C5
:102AD0000131C8E9051020462021FEF745FA0028FB
:102AE0007FF4A4AD20464021FEF73EFA00287FF493
:102AF0009DADD8F8140000EA090001287FF496ADD6
:102B0000204620210122FEF735FA204640210022EE
:102B1000FEF730FA20464FF400410122FEF72AFA70
:102B200020462021FEF720FA012835D120464021F9
:102B3000FEF71AFA80BB20464FF40041FEF714FA64
:102B4000012829D102200C21FFF740FB42F65F50FB
:102B5000C0F60000FFF7F4FB4FF47A70FEF7E2F8DE
:102B600020464FF400410022FEF704FA20462021BF
:102B70000122FEF7FFF9204640210122FEF7FAF973
:102B800020464FF400610022FEF7F4F920464FF48E
:102B900080510022FEF7EEF920462021FEF7E4F9ED
:102BA00001287FF443AD20464021FEF7DDF90128DE
:102BB00004BF98F818005FEAC0707FF437AD204674
:102BC00020210022FEF7D6F9204640210122FEF7FF
:102BD000D1F920464FF400410122FEF7CBF92046FF
:102BE0002021FEF7C1F9B0BB20464021FEF7BCF919
:102BF000012830D120464FF40041FEF7B5F90128F5
:102C000029D102200C21FFF7E1FA42F65A50C0F612
:102C10000000FFF795FB4FF47A70FEF783F820462B
:102C20004FF400410022FEF7A5F9204620210022A2
:102C3000FEF7A0F9204640210022FEF79BF920462E
:102C40004FF400610122FEF795F920464FF48051C0
:102C50000122FEF78FF920462021FEF785F9012891
:102C60007FF4DCAC20464021FEF77EF901287FF49A
:102C7000D5AC20464FF40041FEF776F900287FF4EA
:102C8000CDAC02200C21FFF7A1FA42F65F50C0F64E
:102C90000000FFF755FBC1E420464021FEF764F930
:102CA00000287FF4C3AC20464FF40041FEF75CF9E6
:102CB00000287FF4BBAC02200C21FFF787FA42F614
:102CC0005A50C0F60000FFF73BFBAFE4444F2041F1
:102CD0004E204D4F4E20484F4300000044414E20AF
:102CE00050484F4920545520444F4E4700000000A3
:102CF00043484520444F3A2054485520434F4E47BF
:102D00000000000043484520444F3A2054552044D9
:102D10004F4E470043484520444F3A5448552043BE
:102D20004F4E4700000000000000000001020304B5
:102D30000607080900000000010203040102020363
:102D40000405060708090A0B0C0D0E0F101054524B
:102D5000414E4720544841493A00444F4E47004DA8
:102D60004F000000882D0008000000201000000027
:102D700028010008982D000810000020E807000036
:102D800044010008000000000100000010000000E5
:082D90000024F4000200000021
:04000005080000ED02
:00000001FF
